:1000000000800020BD010000990900006509000082
:100010006509000065090000650900006509000028
:1000200065090000650900006509000099090000E4
:1000300099090000650900009909000055090000B0
:100040009909000099090000990900009909000028
:100050009909000099090000990900009909000018
:100060009909000099090000990900009909000008
:1000700099090000990900009909000099090000F8
:1000800099090000990900009909000099090000E8
:1000900099090000990900009909000099090000D8
:1000A00099090000990900009909000099090000C8
:1000B00099090000990900009909000099090000B8
:1000C00099090000990900009909000099090000A8
:1000D0009909000099090000990900009909000098
:1000E0009909000099090000990900009909000088
:1000F00099090000FD09000099090000190B000092
:1001000099090000350C00009909000099090000C8
:100110009909000099090000990900009909000057
:100120009909000099090000990900009909000047
:100130009909000099090000990900009909000037
:100140009909000099090000990900009909000027
:100150009909000099090000990900009909000017
:100160009909000099090000990900009909000007
:1001700099090000990900009909000099090000F7
:1001800099090000990900009909000099090000E7
:1001900099090000990900009909000099090000D7
:1001A00099090000990900009909000099090000C7
:1001B000990900009909000099090000564B4CF27A
:1001C000205210B51A804DF628121A8000BF00BFC9
:1001D00000F0E6FB514B4FF010621A60504A9A60F3
:1001E000504ADA60504A136813F4807301BF4F49D4
:1001F0000B604FF4A85313604D4B4E491A7810070B
:1002000042BF1A7842F008021A704B4B2A221A7029
:100210004A4A4B4B8B4204D252F8040F43F8040B6A
:10022000F8E7484B484A0021934202D243F8041BA6
:10023000FAE7464A4648002350F8231042F82310B4
:1002400001336F2BF8D1434B434A802103F8011B44
:100250009342FBD1414B3D4A1A60414B8A221A70AE
:10026000A3F5805324225A70A0221A709A7991071C
:10027000FCD59A79D206FCD43A4A937903F00C0360
:10028000082B384BF9D103221A7140225A719A79FE
:100290009406FCD533498A79324B5006FBD5324A55
:1002A000324911600221516020221A709A7902F0BD
:1002B0000C020C2AFAD12E4B2E4A1A602E4B2F4AD2
:1002C0001A6000225A60072243F8042C2C4AC3F813
:1002D0000C2D62B600F06EF9144B1B68DA0705D5D9
:1002E000284800F0F1F8284B284A1A60284B1B7860
:1002F0005B0609D5244C254B22689A4204D121483B
:1003000000F0E2F80023236000F004FD00F04EFB53
:1003100000F008FAFEE700BF0E20054030800440E0
:10032000823F04000100002B10D0034014D0034092
:1003300002D007402882FF1F00E00740AC100000F9
:10034000BC81FF1F2882FF1FD883FF1F0080FF1F73
:100350000000000000E400E05FE400E008ED00E0E1
:100360000050064000400640448004400000030165
:1003700004800440C010050014E000E0FF76010096
:1003800000002020FC2292591CE00340A5C3945A8F
:1003900000F00740FFFFFFFFFFFFFFFFFFFFFFFF32
:1003A000FFFFFFFFFFFFFFFFFFFFFFFFFFFFFFFF5D
:1003B000FFFFFFFFFFFFFFFFFFFFFFFFFFFFFFFF4D
:1003C000FFFFFFFFFFFFFFFFFFFFFFFFFFFFFFFF3D
:1003D000FFFFFFFFFFFFFFFFFFFFFFFFFFFFFFFF2D
:1003E000FFFFFFFFFFFFFFFFFFFFFFFFFFFFFFFF1D
:1003F000FFFFFFFFFFFFFFFFFFFFFFFFFFFFFFFF0D
:10040000FFFFFFFFFFFFFFFFFFFFFFFFDEF9FFFF23
:1004100010B5054C237833B9044B13B10448AFF33E
:1004200000800123237010BD2882FF1F0000000000
:10043000B0100000084B10B51BB108490848AFF3D5
:1004400000800848036803B910BD074B002BFBD0A0
:10045000BDE81040184700BF000000002C82FF1FBD
:10046000B01000002882FF1F0000000000B589B016
:100470000A49684600F031F9694604A800F047F9D6
:1004800001210D2000F030F804A800F0E6F86846DD
:1004900000F0E3F809B05DF804FB00BF7C0F00003A
:1004A00010B5074B20241C604FF47A7000F06CF8F4
:1004B000044B4FF4FA701C60BDE8104000F064B8C3
:1004C00084F00F4088F00F40044B054900221A6069
:1004D0000A60044A106010221A60704714D003406A
:1004E00004D0034000D00340212810B52BD8164A71
:1004F00002EBC00301295B68144601D004290FD127
:1005000054F83020012082F880024FF4A2721A6061
:100510001A6804290CBF42F0200222F0200211E0E8
:1005200052F83000002280F8802211B94FF4807216
:1005300008E0022902D140F2031203E0032908BFB8
:100540004FF481721A6010BD8C0F000072B60B4B15
:100550000B4A0C491B681268096862B6490102D54A
:10056000322B88BF0132C3F5BB336020FF33B3FBAE
:10057000F0F34FF47A7000FB0230704718E000E0AF
:100580004482FF1F04ED00E038B50446FFF7DEFFAC
:10059000054624B938BD013C0AD005F57A75FFF748
:1005A000D5FF401BB0F57A7FF5D200F0C3F8F6E72F
:1005B00038BDFFFF214B4FF4000210B51A604FF019
:1005C00080721A604FF000721A604FF080621A60F9
:1005D0004FF000621A601A4B1A4A1B4C00204BF66F
:1005E000FF71186059602823136093601361936151
:1005F00013629362136393630922226004F58054AB
:10060000043420606160A360236144F8042C04F585
:10061000FE2420600D4801600D490B608B600D4B7E
:100620001A6000F03BF93220FFF7AEFF00F014F83B
:100630004FF4AF70BDE81040FFF7A6BF08E100E03F
:10064000048003400C8003400080034008800B407E
:100650000C800B4000800B40704710B504460068CA
:1006600000F07EFB204610BD38B504460D460068FC
:10067000013100F029FC10B184E82100012038BDCF
:1006800043688B4210B5044606D2FFF7EDFF20B158
:10069000A3680BB922681370012010BDF8B5044699
:1006A0000F46154622B9036803B11A7000230BE008
:1006B0001146FFF7E5FF064640B9206810B100F08B
:1006C0004FFB266000236360A36004E0A560394609
:1006D000206800F011FC2046F8BD38B50023044620
:1006E00003604360836003730D4639B1084600F030
:1006F0000BFC294602462046FFF7D0FF204638BDB6
:10070000814203D08A680968FFF7C8BF704710B5F7
:10071000002304460360436083600373FFF7F0FF28
:10072000204610BD08B5FFF7A1FEFFF7B9FE00F0A7
:1007300001F8FAE710B50B4C237893B90123237025
:1007400000F04CF908B100F0DBFA00F0D5F908B17F
:1007500000F0D7FA00F05EFA08B100F0D3FA0023F7
:10076000237010BD4882FF1F844641EA000313F046
:1007700003036DD1403A41D351F8043B40F8043BA8
:1007800051F8043B40F8043B51F8043B40F8043B6B
:1007900051F8043B40F8043B51F8043B40F8043B5B
:1007A00051F8043B40F8043B51F8043B40F8043B4B
:1007B00051F8043B40F8043B51F8043B40F8043B3B
:1007C00051F8043B40F8043B51F8043B40F8043B2B
:1007D00051F8043B40F8043B51F8043B40F8043B1B
:1007E00051F8043B40F8043B51F8043B40F8043B0B
:1007F00051F8043B40F8043B403ABDD2303211D3AB
:1008000051F8043B40F8043B51F8043B40F8043BEA
:1008100051F8043B40F8043B51F8043B40F8043BDA
:10082000103AEDD20C3205D351F8043B40F8043BAA
:10083000043AF9D2043208D0D2071CBF11F8013BA8
:1008400000F8013B01D30B8803806046704700BF6E
:10085000082A13D38B078DD010F003038AD0C3F17D
:100860000403D21ADB071CBF11F8013B00F8013B5F
:1008700080D331F8023B20F8023B7BE7043AD9D31E
:10088000013A11F8013B00F8013BF9D20B780370F3
:100890004B7843708B7883706046704710B5204B5F
:1008A0002048214960221A70E1225A701F4B204AC9
:1008B0001C78204B082C01D1012402E00A2C03D122
:1008C00039240460132005E00C2C0CBF35243D2492
:1008D00004601220086014601860174B17491B78D9
:1008E000174A03B101230B601360164B164A19789F
:1008F000164B012901D880210BE0042901D884215D
:1009000007E0082901D8852103E0102994BF86213A
:100910008721116019600E4B01221A7010BD00BFB3
:100920000040074008B003400CB00340BC81FF1FEB
:1009300008B00B400CB00B404A82FF1F20B00340B0
:1009400020B00B40BD81FF1F24B0034024B00B40FA
:100950004982FF1F024A136801331360704700BFCA
:100960004482FF1F08B50B4D2C462B68580301D558
:1009700000F012F82368590501D500F03FF823680C
:100980001A0501D500F0C8F82368DB04EDD500F0A6
:1009900051F9EAE73480044008B5FFF7E3FFFFFFB1
:1009A000014B10221A807047002005407047FFFF5E
:1009B000094908B50B6868B16A461844A2F5805227
:1009C000904206D300F0A0F90C2303604FF0FF30F3
:1009D00008BD0860184608BDC081FF1F054B187888
:1009E000054B1A78C0B2D3B2984238BF4030C01A13
:1009F000704700BFD282FF1F5182FF1FF0B53449FC
:100A00000B7913F0300F2FD072B68B7D03F0FF04FB
:100A100023B9CB7940234B7462B625E062B62D48EA
:100A20002D4A037812782D4FDBB2D2B20546581CFE
:100A30004028CE7928BF00209042F6B21CBF3E5419
:100A40000346601E10F0FF04F1D1D9B22970244989
:100A5000096849B1934236BFC2F140029B1A9B1804
:100A6000272BC4BF01230B70194AD178C9B20D06D8
:100A70001ED513791C061BD51A4B1B481D7803780D
:100A80001A4EEDB2DBB2AB420AD00133402B28BF85
:100A900000231479F45CE4B2D471147D072CF2D9EC
:100AA000DBB203700A4B1A79100644BF7C22DA705D
:100AB00049060CD5064B1A79520608D50C4A002176
:100AC00011700C4A126802B111703C22DA70F0BD4C
:100AD00000A00640D282FF1F5182FF1F9282FF1F9B
:100AE0004C82FF1FD882FF1FD382FF1F5282FF1F3D
:100AF0005082FF1FD482FF1F054B1878054B1A78D0
:100B0000C0B2D3B2984238BF4030C01A704700BF5D
:100B10004A83FF1FE182FF1FF0B534490B7913F0C0
:100B2000300F2FD072B68B7D03F0FF0423B9CB7941
:100B300040234B7462B625E062B62D482D4A0378F7
:100B400012782D4FDBB2D2B20546581C4028CE7920
:100B500028BF00209042F6B21CBF3E540346601EE0
:100B600010F0FF04F1D1D9B229702449096849B1C4
:100B7000934236BFC2F140029B1A9B18272BC4BF79
:100B800001230B70194AD178C9B20D061ED513790D
:100B90001C061BD51A4B1B481D7803781A4EEDB264
:100BA000DBB2AB420AD00133282B28BF00231479D3
:100BB000F45CE4B2D471147D072CF2D9DBB203707B
:100BC0000A4B1A79100644BF7C22DA7049060CD50C
:100BD000064B1A79520608D50C4A002111700C4AAE
:100BE000126802B111703C22DA70F0BD00B006400C
:100BF0004A83FF1FE182FF1F0A83FF1FDC82FF1F62
:100C00005083FF1F4B83FF1FE282FF1FE082FF1F05
:100C10004C83FF1F054B1878054B1A78C0B2D3B22E
:100C2000984238BF4030C01A704700BFC283FF1FD0
:100C30005983FF1F10B5284B1A79920620D52749F2
:100C4000DA790B782648013300783F2BC8BF0023A0
:100C5000834218BF2348D2B21EBFC254DAB20A7010
:100C6000214A116861B1214A1278D2B2934236BF4B
:100C7000C2F140029B1A9B18272BC4BF01230B70A3
:100C80001549CA78D2B2140616D50B79180613D5B1
:100C9000174B164C18782378DBB2984202D16C239C
:100CA000CB7009E00133282B28BF00231148C05C1A
:100CB000DBB2C0B2C871237051060CD5064B1A794D
:100CC000520608D50C4A002111700C4A126802B174
:100CD00011702C22DA7010BD00C00640C283FF1FC5
:100CE0005983FF1F8283FF1F5483FF1FC383FF1F8E
:100CF000C883FF1F5A83FF1F5883FF1FC483FF1F32
:100D0000704770477047FFFF014B1868704700BF7E
:100D10002482FF1F70B50E4B0E4CE41AA410002560
:100D20001E46A54204D056F8253098470135F8E70D
:100D300000F0B4F9084C094BE41AA41000251E4633
:100D4000A54204D056F8253098470135F8E770BD24
:100D5000A8100000A8100000AC100000A8100000AF
:100D6000024B0146186800F003B800BF2482FF1F41
:100D700038B50546002946D051F8043C0C1F002B1D
:100D8000B8BFE41800F0C8F81F4A1368114613B939
:100D90006360146032E0A3420ED92268A018834237
:100DA00004BF18685B68636004BF121822600C609F
:100DB00024E0A24203D813465A68002AF9D11868E1
:100DC0001918A1420BD121680144581882421960B8
:100DD00014D1106852685A60014419600EE002D9BB
:100DE0000C232B600AE021686018824204BF10685F
:100DF0005268626004BF091821605C602846BDE843
:100E0000384000F08AB838BDD083FF1F70B5CD1CC4
:100E100025F0030508350C2D38BF0C25002D06469E
:100E200001DBA94202D90C23336046E000F074F8DC
:100E3000234B1C681A462146A1B10B685B1B0ED4DC
:100E40000B2B03D90B60CC18CD501EE08C420DBF8C
:100E500063684B686360136018BF0C4615E00C466E
:100E60004968E9E7174C23681BB9304600F034F8AD
:100E700020602946304600F02FF8431C18D0C41CCF
:100E800024F00304A0420DD12560304600F045F85F
:100E900004F10B00231D20F00700C31A0ED05A42A4
:100EA000E25070BD211A304600F016F80130EBD147
:100EB0000C233360304600F030F8002070BD00BFD6
:100EC000D083FF1FCC83FF1F024B0A4601461868E0
:100ED00000F024B82482FF1F38B5064C00230546D5
:100EE00008462360FFF764FD431C02D1236803B169
:100EF0002B6038BDD483FF1F034611F8012B03F884
:100F0000012B002AF9D17047034613F8012B002A60
:100F1000FBD1181A0138704770477047F8B507467B
:100F200015460E4621B91146BDE8F840FFF76EBFE1
:100F30001AB9FFF71DFF2846F8BD00F015F88542E5
:100F40000ED929463846FFF761FF044650B13146B5
:100F50002A46FFF709FC31463846FFF709FF01E052
:100F60003046F8BD2046F8BD51F8040C0028BEBF3D
:100F7000091851F8043CC0180438704766775F744C
:100F800065656E7379332E3100FFFFFF4008FE4325
:100F900040A004404408FE4344A004400018FE431F
:100FA00000C004403000FE43309004403400FE4353
:100FB000349004401C18FE431CC004401018FE432B
:100FC00010C004400818FE4308C004400C18FE433B
:100FD0000CC004400C10FE430CB004401010FE4343
:100FE00010B004401810FE4318B004401C10FE431B
:100FF0001CB004401410FE4314B004400418FE4317
:1010000004C004400010FE4300B004400008FE434A
:1010100000A004400408FE4304A004400C08FE4362
:101020000CA004400808FE4308A004401418FE4326
:1010300014C004401818FE4318C004400410FE43B6
:1010400004B004400810FE4308B004401400FE43FE
:10105000149004404C08FE434CA004400420FE437E
:1010600004D004402410FE4324B004402010FE436A
:1010700020B004402810FE4328B004402C10FE434A
:101080002CB004400020FE4300D004404808FE433A
:1010900048A004401000FE4310900440F8B500BF83
:0C10A000F8BC08BC9E46704735040000F8
:0410AC00F8B500BFD4
:1010B0000A040000D883FF1F0000000000000000A9
:1010C0000000000000000000000000000000000020
:1010D0000000000000000000000000000000000010
:1010E0000000000000000000000000000000000000
:1010F00000000000000000000000000000000000F0
:1011000000000000000000000000000000000000DF
:0C1110000000000000000000C481FF1F70
:00000001FF
