:1000000000000320D101000021300000D92F0000A2
:10001000D92F0000D92F0000D92F0000D92F0000C0
:10002000D92F0000D92F0000D92F00002130000067
:1000300021300000D92F0000514500005545000037
:10004000213000002130000021300000213000006C
:10005000213000002130000021300000213000005C
:10006000213000002130000021300000213000004C
:10007000213000002130000021300000213000003C
:10008000213000002130000021300000213000002C
:10009000213000002130000021300000213000001C
:1000A000213000002130000021300000213000000C
:1000B00021300000213000002130000021300000FC
:1000C00021300000213000002130000021300000EC
:1000D00021300000213000002130000021300000DC
:1000E00021300000213000002130000021300000CC
:1000F00021300000213000002130000021300000BC
:1001000021300000213000002130000021300000AB
:100110002130000091350000213000002130000026
:10012000213000002130000021300000213000008B
:10013000213000002130000021300000213000007B
:10014000213000002130000021300000213000006B
:10015000213000002130000021300000213000005B
:10016000213000002130000021300000213000004B
:10017000213000002130000021300000213000003B
:10018000213000002130000021300000213000002B
:10019000213000002130000021300000213000001B
:1001A000213000002130000021300000213000000B
:1001B00021300000213000002130000021300000FB
:1001C00021300000213000002130000021300000EB
:1001D0005C4B4CF2205210B51A804DF628121A8052
:1001E00000BF00BF02F020FF574B4FF030621A6093
:1001F000564A9A60564ADA60564B4FF470021A60BB
:10020000554B564A1A60564B1A78110703D51A787F
:1002100042F008021A70534B5349AA221A70534AEB
:10022000534B8B4204D252F8040F43F8040BF8E707
:10023000504B514900228B4202D243F8042BFAE77B
:100240004E494F4A002352F8230041F8230001335E
:10025000742BF8D14B4B4C4A802103F8011B93427D
:10026000FBD14A4B454A1A60494B8A221A70A3F5C2
:10027000805324225A70A0221A709A799207FCD5D2
:100280009A79D406FCD4434A937903F00C03082BE3
:10029000FAD1414B60221A7002331A78802AFCD1BD
:1002A0003C4B01221A715D225A719A799006FCD555
:1002B0009979384A4906FBD5384B394919600021EC
:1002C000596020231370937903F00C030C2BFAD19F
:1002D000344B354A1A60354A354C136813F4807331
:1002E00003D123604FF4A8531360324B324A1A6093
:1002F00000225A60072243F8042C304AC3F80C2D20
:1003000062B602F0B5FF2368DA0705D52C4802F083
:100310003FFF2C4B2C4A1A602C4B1B785B0609D5EF
:10032000284C294B22689A4204D1254802F030FF1C
:100330000023236004F0A8FF02F07CFE04F04EF9D5
:10034000FEE700BF0E20054030800440823F0400DD
:100350000100002B88ED00E0002008E0030000858C
:1003600002D0074000E007403018FF1FE4D700002C
:100370003007FF1F3018FF1FE81CFF1F0002FF1F80
:100380000000000000E400E064E400E008ED00E0AC
:10039000005006400040064001E007404480044011
:1003A0000000060204800440C010070010D0034083
:1003B00014D0034014E000E01FBF02000000202022
:1003C0006B81325F1CE00340A5C3945A00F00740E4
:1003D000FFFFFFFFFFFFFFFFFFFFFFFFFFFFFFFF2D
:1003E000FFFFFFFFFFFFFFFFFFFFFFFFFFFFFFFF1D
:1003F000FFFFFFFFFFFFFFFFFFFFFFFFFFFFFFFF0D
:10040000FFFFFFFFFFFFFFFFFFFFFFFFDEF9FFFF23
:1004100010B5054C237833B9044B13B10448AFF33E
:1004200000800123237010BD3018FF1F0000000062
:10043000E0D70000084B10B51BB108490848AFF3DE
:1004400000800848036803B910BD074B002BFBD0A0
:10045000BDE81040184700BF000000003418FF1F1F
:10046000E0D700003018FF1F00000000704700BFF9
:1004700010B5054C204600F085F92046034A044992
:10048000BDE8104004F016BA4C18FF1F700DFF1F96
:10049000A107000030B55E4A5E495F4C5F48B3B0CB
:1004A0001378002BFCD00B78DD07F9D5236805689D
:1004B0005B1B0E2BF4D903F07FFE01300AD003F052
:1004C0007BFE0130F7D105E004F07AF84FF4FA70C2
:1004D00002F07CFE03F070FE013051495148F3D028
:1004E0001721514803F0CEFEFE21504800F070F96C
:1004F000002834D014214E4803F0C4FE494804F0CB
:1005000047F819A801234B4A484900F017FA32AAC4
:1005100049491B9B12F8584D9DF868008B600C737D
:10052000087101F10D031A3112F8010F03F8010BE4
:100530008B42414CF8D1209BE36119A800F030F9BF
:10054000204600F03DF998B13C4802F097F9054685
:10055000B8B102463A49334804F032F8FEE71621B2
:10056000384803F08FFE2F4804F012F833B030BD46
:100570001621354803F086FE2A4804F009F833B006
:1005800030BD0921314803F07DFE264804F000F813
:100590004FF0FF34284800F06FF8F8B1264800F01B
:1005A00089F8C0B23A2828D0631CF3D00D282CD18A
:1005B00032AB1C4400202A4604F8C80C6B46244980
:1005C000184803F0FDFF684602F050FA1A4801355A
:1005D0004FF0FF3400F050F80028DFD1164800F04B
:1005E000E1F864212B461B4A0DEB010005F064FC89
:1005F00019A802F03BFA33B030BD0123002432AA1F
:1006000022441C4602F8C80CC4E7631CF7E700BF8D
:10061000501CFF1F681CFF1F6C1BFF1FE01CFF1FEF
:1006200074CA0000CC0DFF1F84CA00006C18FF1FA5
:10063000B4CA0000CCCA00004C18FF1FFC1AFF1FF0
:10064000D8CA00009CCA00001CCB0000F4CA0000FD
:1006500000CB000010CB000000207047704700BFA7
:1006600010B582B002AB026803F8011D5468194648
:100670000122A04702B010BDC06938B18369C068CB
:1006800047F6FF72181A904228BF1046704700BF05
:10069000C36910B504463BB100201871E06901F050
:1006A00063FCE3691B791BB101232371002010BD9A
:1006B00010BD00BFC06978B100B583B001220DF153
:1006C000070101F023FA01280CBF9DF807004FF045
:1006D000FF3003B05DF804FB4FF0FF30704700BF00
:1006E000C369C3B110B582B00446012218460DF1AA
:1006F000070101F00BFA012803D04FF0FF3002B0E0
:1007000010BDE0699DF80740C168013901F0BAFAEF
:10071000204602B010BD1846704700BFC06908B13E
:1007200001F0E2BA704700BF2DE9F04105464FF4F1
:100730007A731348AB60002328602B712B7324203D
:100740000C46904604F0F0FDE861B0B1064604F1B5
:10075000200E20686168A268E36837460FC710342E
:1007600074453E46F5D12068386041460C2205F1BB
:100770000D0005F043FD00236B762846BDE8F081AF
:100780003CCB00004FF47A72044982600022016081
:1007900002710273C2614273704700BF3CCB00001C
:1007A000704700BFC36953B110B50446184601F045
:1007B00035F9E06904F0C0FD0023E36110BD704726
:1007C000C06918B18079003018BF0120704700BFA0
:1007D00038B590F8323004460D46D3B9FE2D1DD001
:1007E0002A460121204600F007FE03460BB90020EF
:1007F00038BD251D28460122214601F0A5FEC0B1C5
:10080000294604F12C0001F059F9003018BF0120ED
:1008100038BD2C3001F002F9FE2DE1D1257000F039
:1008200005FA054600F0F0F9B5FA85F35B09A0700A
:10083000DCE702462146284601F086FE0028DFD18B
:10084000002038BD2DE9F04F99B04FF00008DFF8D7
:10085000E8A08DF81C808146043106A893460193D8
:100860008DF81E808DF840808DF84280CDF818A05C
:10087000CDF83CA001F022F906AE5D460FAF2F2166
:10088000284605F095FB441BE4B2294608B32B78B3
:100890002F2B02A81BD00C2C28BF0C24224605F0BD
:1008A000ADFC18AB2344384603F8588C01F0B6F879
:1008B000012302AA3146384601F04AFB88B330468C
:1008C00001F0ACF8334625443E461F46D7E70135D4
:1008D000D5E7019831797279B379B468377DCBEB7C
:1008E00005050560F068356989F8041089F8052068
:1008F000B16989F80630F269336AC9F80C004846D4
:10090000C9F800A0C9F80840C9F8105089F8147057
:10091000C9F81810C9F81C20C9F8203019B0BDE872
:10092000F08F89F8040089F806004846C9F800A04D
:1009300019B0BDE8F08F00BF64CB0000F0B59DB0EA
:1009400005461F4601A86B461446FFF77BFF009A39
:10095000A35C1444002B42D09DF80A202F4E0A9627
:1009600000238DF82C308DF82E30002A31D00AA8C3
:100970003B46224601A901F0EBFA50B301A801F071
:100980004DF817F0060F43D19DF82C700C9B9DF885
:100990002DE0139622469DF82E408DF850708DF86C
:1009A000524015930D990E989DF83C70109E119C25
:1009B000129B8DF851E01691179013A928468DF8D7
:1009C000607019961A941B93FFF7AEFE28461DB06F
:1009D000F0BD2846FFF7D6FE28461DB0F0BD9DF8B5
:1009E00008700E4E9DF809409DF80A30039A8DF864
:1009F000507013968DF851408DF85230159204992D
:100A000005989DF81870079E089C099B044AD2E738
:100A10000AA8109901F036F9B6E700BF64CB0000D0
:100A200058CB0000064B074ADA62022100225960C7
:100A30009A7083F8242083F8302083F8322070479E
:100A40006C18FF1F64CB00004FF47A72264B02FB38
:100A500000F09842F0B440D8244D08210122520001
:100A60001301B5FBF3F39842204C32D20139F6D191
:100A7000B4FBF2F453081F02A04232D21B4E5100C5
:100A80000123B6FBF1F4A04203F1010511441ED28B
:100A9000102D2B46F5D1F022154C1649236823F072
:100AA00008032360206820F47F2020F47F6040F456
:100AB000602040EA0703134323600B681B07FCD543
:100AC0000B4A136843F008031360F0BC70471A0127
:100AD000E2E7B4FBF2F4D701CEE7044C0027012291
:100AE000CAE70022D8E700BF4FA9AB000095BA0AB9
:100AF0002C100B4024100B402049214A0B6843F076
:100B000080030B6011461368DB07FCD40B689B075E
:100B1000F9D41C4B30B44FF08072184D186000E0CF
:100B2000A2B12968184B154C0B40013A002BF7D0A5
:100B300062B1012B0AD1236813F0800F23680FD014
:100B400043F001132360032030BC70470B4A136845
:100B500043F4702343F001031360012030BC70475D
:100B600013F48030236804D043F001132360052080
:100B7000F4E743F001032360F0E700BF30100B40BF
:100B800024100B400C100B4001000E0070B50D4DF1
:100B90000D480E4E00232B60FFF7AEFF40F2E73406
:100BA00003463268520701D507480BB1184670BD9D
:100BB0002B60FFF7A1FF013C0346F2D1002808BFDC
:100BC000052070BD08100B400000DB0C24100B400A
:100BD00070B5094C0023054623600848FFF78CFFD9
:100BE00000B170BD064E074833682560FFF784FFEB
:100BF0000028F6D1336870BD08100B4000001A378A
:100C000010100B4000000229074B1A784AB99A7855
:100C10002AB15B78002B0CBF022003207047012013
:100C200070470020704700BFC018FF1FAA4AAB4999
:100C30001368AB4843F040632DE9F04713600B683D
:100C4000DFF804E3A74FA84EA84DA94C02F52322D4
:100C500043F400330B6002F62C0240F20313002130
:100C6000CEF800303B6031602B6023600360136876
:100C700043F0807343F4004313601368DD01FCD438
:100C80004FF4C870FFF7E0FE9A4A13689C07FCD146
:100C9000944FDFF8B4E29449954D914C964A934EA7
:100CA000964840F24343CEF800303B604FF48867EB
:100CB0000F604FF4813133602B6023601160036853
:100CC0008F49904D23F0380304F5C82443F02803DE
:100CD000036020340B680B60283240F2DC51256041
:100CE000136843F00063136013681801FCD40139E2
:100CF000F6D1834A7F48136843F08003136003688A
:100D0000DA0308D4804B022059709970187059602A
:100D10009960BDE8F0877C4C7C4B7D4E2170617002
:100D2000A1700846196031606160A160FFF7E4FEC0
:100D300070B9784D78482B684FF4D5733360FFF75E
:100D4000DBFE48B92B682B68B3F5D57F00F0C18076
:100D500001202070BDE8F0870528F9D10020FFF7B9
:100D600037FF0028F4D16B4B1A6812F4401F19D0DA
:100D70006278DFF8D881694F002A05461E4608BF11
:100D80004FF440173846FFF723FF0135614B002829
:100D900040F0F1803268002AC0F2E4804545F1D18C
:100DA000002363705A4E5E4800233360FFF7A4FEB1
:100DB00003460028CCD1574D5A482A683360FFF7C4
:100DC0009BFE0028C4D12B682B6857484E4D1B0C46
:100DD0001B0433606360FFF78FFE0028B8D1534BCC
:100DE00053491A68120EEA700A6812F4400F40F074
:100DF000AF8019684F481B68026800689B0203F4C3
:100E0000406343EA9253C0F3C2105A1CC1F303215A
:100E1000831C093902FA03F38B40AB603C4E6368D4
:100E200033604548384FFFF767FE002890D1394DB1
:100E300042482B684FF400733360FFF75DFE0028D3
:100E400086D17B682A683E483360FFF755FE00284C
:100E50007FF47EAF02232A683A483360FFF74CFEE6
:100E600000287FF475AF254B2A681A68DFF8D8A0F0
:100E7000DFF87090DFF87080194C22F006021A60DB
:100E80001A68A6F5C726A6F2FC76A5F5C82542F095
:100E900002021A6040F20313CAF80030C9F80030A9
:100EA000C8F80000336046F2A8102B602360FFF7FB
:100EB000CBFD40F243434FF48862CAF80030C9F8D2
:100EC0000030C8F8002033602B6023603878BDE81C
:100ED000F0870123637041E700D800403080044070
:100EE00014D0044004D0044008D004400CD0044086
:100EF00010D0044024100B4004100B4028100B406D
:100F000030100B40BB007F11C018FF1F38100B4082
:100F100008100B4010100B4000001A080000304071
:100F20000000090200001A030000090918100B4014
:100F30001C100B4014100B4000001B0700001A107F
:100F400000001A3700001A0600D00440A0860100F5
:100F500001220A4BAA701B68C3F3152313449B029A
:100F6000AB605BE7064A95423FF41AAF1B685B0033
:100F70007FF516AF16E70120BDE8F08714100B408F
:100F8000A0860100F8B5384B1A780AB10320F8BDE5
:100F90005B78064603B94902344D354C354B36482B
:100FA0004FF6FF774FF481322F6021601A60FFF710
:100FB000A3FD0028EBD1314B31491B681C3406F1ED
:100FC000400206F510702B68284F43F0200613F4FA
:100FD000E00F2E603ED123681E05FCD50B6842F859
:100FE000403C0B6842F83C3C0B6842F8383C0B68CC
:100FF00042F8343C0B6842F8303C0B6842F82C3C19
:101000000B6842F8283C0B6842F8243C0B6842F815
:10101000203C0B6842F81C3C0B6842F8183C0B68FB
:1010200042F8143C0B6842F8103C0B6842F80C3C48
:101030000B6842F8083C0B6842F8043C403282429C
:10104000C1D1002009490B68084A9B07FBD50D4B0D
:101050001360F8BD43F4E00343F020033B60FFF767
:1010600095FD0120EEE700BFC018FF1F30100B40B8
:1010700008100B4004100B4010003A1110100B40E8
:1010800020100B4022000001F8B52B4B1A780AB152
:101090000320F8BD5B78044603B94902274D284870
:1010A0002A68284B2A604FF48132016026481A6072
:1010B000FFF722FD0028ECD1244B254E1B68294662
:1010C00004F500770B681D4AD806FBD52B6813F48E
:1010D000E00F1AD104F1400254F8043B3360A242FD
:1010E000FAD10B68DFF854E043F010030B600B6893
:1010F00013F4E00013D19742E4D110490B680F4A72
:101100009B07FBD5134B1360F8BD136843F4E00352
:1011100043F010031360FFF739FD0120EDE7DEF81F
:10112000003043F4E00343F01003CEF80030FFF743
:101130002DFD0120E1E700BFC018FF1F30100B405C
:1011400008100B4004100B4000003A1810100B4020
:1011500020100B4012000001052822D8DFE800F023
:1011600003030F151B09124B124A1A60124801F0B3
:1011700015BB0F4B114A1A600F4801F00FBB0C4B07
:101180000F4A1A600C4801F009BB094B0D4A1A605E
:10119000094801F003BB064B0B4A1A60064801F0F0
:1011A000FDBA034B094A1A60034801F0F7BA00BFC1
:1011B000D018FF1F000001B8780DFF1F0430003861
:1011C00001100038032000380100023806500138B1
:1011D00010B50121007801F0EDFF114A1378C3B179
:1011E0001049CB7A00241846147093B1DA0703D55E
:1011F0000D4AC869106018469C0703D50B4B0A6A54
:10120000C87A1A60420705D4030702D5084B8A6AD8
:101210001A6010BD074B4A6AC87A1A60F4E700BF2B
:10122000D418FF1F780DFF1F00E100E004E100E08B
:101230000CE100E008E100E0234B1A781AB10078D5
:10124000002101F0B7BF70B4204A2149D47A09685F
:1012500001251D70002C26D072B6D47AE6072346ED
:1012600006D51C4DD3682E683340D3612B602346CE
:10127000A50706D5184D14692E68D37A3440146238
:101280002C605C0706D5154D54692E68D37A34401E
:1012900054622C601B0705D5114C936925682B40BF
:1012A0009362236062B61368DA688A4207D00D4CF5
:1012B0001C600D4AD96041F080441C611A600078BE
:1012C000002170BC01F076BFD418FF1F780DFF1FFE
:1012D000D018FF1F80E100E084E100E088E100E039
:1012E0008CE100E001403F0000003F80F0B4124874
:1012F000124A036882B016460093009F4FF00045E3
:10130000FF24136843F480631360D5625463D36A87
:10131000002BFCDAB36BDBB2FF2B09D0036801931F
:10132000019BDB1B8B42ECD3002002B0F0BC70476A
:10133000012002B0F0BC70476C1BFF1F00C00240D0
:10134000F8B50D464FF4967116460446FFF7CEFFEA
:10135000284B1A684FF0004042F4806245F040018B
:101360001A60D8621A465963D36A002BFCDA214905
:1013700018204FF000470A6826FA00F342F4806212
:10138000DBB20A60CF624B63CB6A002BFCDA083811
:1013900010F1080FEFD155B3082D0CBF8721FF21A5
:1013A000144B1A684FF0004042F480621A60D86211
:1013B0001A465963D36A002BFCDA0E4A00271646F8
:1013C0004FF00045FF21136843F480631360D5623A
:1013D0005163D36A002BFCDAB36BD8B21B06607082
:1013E00000D4F8BD0137B7F5807FECD1F8BD952169
:1013F000D6E700BF00C002402DE9F04300239D4E18
:10140000027085B0837033680193054688461046A4
:101410000121019F01F0CEFE2878012101F0D0FECC
:101420002878012101F0C6FE934A136843F48053E3
:1014300013600620FFF790FEDFF870E28F4B9EF8F6
:101440000BC01A68BCF1000F2CD072B69EF80B10BE
:10145000C8070B4608D58A48DEF80C3004682340DC
:10146000CEF81C3003600B468C0709D58548DEF8A2
:10147000101004689EF80B302140CEF82010016057
:10148000580709D58048DEF8141004689EF80B3020
:101490002140CEF824100160190700F1AB8062B63C
:1014A0009EF80BC0DEF80030D968914207D077482B
:1014B00018607749DA6042F0804018611960754A17
:1014C0000A244FF00040FF21136843F48063136047
:1014D000D0625163D36A002BFCDA013C14F0FF04A4
:1014E000F2D1BCF1000F21D01CF0010F05D06A4BE6
:1014F000DEF81C209EF80BC01A601CF0020F05D00D
:10150000664BDEF820209EF80BC01A601CF0040F1A
:1015100005D0634BDEF824209EF80BC01A601CF047
:10152000080F03D05F4BDEF828201A602846FFF72B
:1015300083FE06E033680293029BDB1BB3F5FA6F70
:1015400051D8002211462846FFF7FAFE01288146AD
:101550006870EFD14FF4D57208212846FFF7F0FEEE
:10156000430726D585F802904FF0000906E033685E
:101570000393039BDB1BB3F5FA6F34D800223721AA
:101580002846FFF7DDFE4A4629212846FFF7D8FE08
:1015900068700028EBD1AB78022B39D02846FFF7D2
:1015A00017FE4046FFF7D8FD0124204605B0BDE8F0
:1015B000F083384A042194464FF0004EFF20136810
:1015C00043F480631360C2F82CE05063D36A002BAD
:1015D000FCDADCF838300139DBB211F0FF016B7056
:1015E000EDD1AA2B0FD02846FFF7F2FD204605B01B
:1015F000BDE8F0832C49DEF8183008680340CEF8C7
:1016000028300B604BE70223AB704FF08049B5E701
:1016100002463A212846FFF793FE0028E3D11D4BEE
:101620001A684FF0004442F48062FF201A601946A5
:10163000DC625863CB6A174A002BFBDA936B154ABE
:1016400003F0C003C02B04BF0323AB700321164675
:101650004FF00044FF20136843F480631360D462AA
:101660005063D36A002BFCDA013911F0FF01B36B30
:10167000F1D193E76C1BFF1F3C800440D018FF1F83
:1016800080E100E084E100E088E100E001403F000B
:1016900000003F8000C0024000E100E004E100E003
:1016A00008E100E00CE100E08CE100E0780DFF1FB4
:1016B000F0B41549154A0B6882B016460093009F96
:1016C0004FF00045FF24136843F480631360D56234
:1016D0005463D36A002BFCDAB36BDBB2FF2B43708D
:1016E0000AD10B680193019BDB1BB3F5967FEAD906
:1016F000002002B0F0BC7047A3F1FE00B0FA80F009
:10170000400902B0F0BC70476C1BFF1F00C00240D4
:10171000F8B58378032B0E46044618BF4E021546D3
:10172000FFF78AFD324611212046FFF709FE18B95E
:101730002046FFF7BDFF20B92046FFF749FD0020F6
:10174000F8BD204B2049214A1A608E4659631A463B
:1017500059631E46596305F5FD70A91C05F5FE7712
:10176000D36A13F0F00FFBD0C6F834E0B36B01F886
:10177000013C1B1201F8023C02318F42F0D105F509
:101780000075A8420DD20F4A1646D36A13F0F00F27
:10179000FBD0B36B191200F8021BA84200F8013C01
:1017A000F3D3084B0949084A196019465A63CB6AB2
:1017B000044A13F0F00FFAD02046936BFFF708FDB0
:1017C0000120F8BD00C00240FFFF009000041F8010
:1017D000F0B4314E33684FF0004743F48063336018
:1017E0003D46F762344671633346511C02F20127CD
:1017F000E26A002AFCDA1A6811F8016C42F480628D
:101800001A60DD625E63E26A002AFCDA1A6811F887
:10181000026B42F480628F421A60DD625E63E7D140
:101820001D49CA6A1C4B002AFBDA1A684FF00045B2
:1018300042F48062FF241A601946DD625C63CB6A61
:10184000154A002BFBDA13684FF0004543F4806320
:10185000FF2413601146D5625463CB6A0E4A002BF5
:10186000FBDA13684FF0004543F48063FF241360F4
:101870001146D5625463CB6A074A002BFBDA936B9F
:10188000DBB203F01F024370A2F10500B0FA80F052
:101890004009F0BC704700BF00C0024070B504466C
:1018A00071B18378032B0D4618BF4D021646FFF722
:1018B000C3FC2A4618212046FFF742FD054620B109
:1018C0002046FFF785FC002070BD3246FE212046F1
:1018D000FFF77EFF0028F3D04FF416712046FFF784
:1018E00005FD0028ECD02A460D212046FFF728FDF3
:1018F0000028E5D10B4B1A684FF0004542F4806296
:10190000FF201A601946DD625863CB6A054A002B36
:10191000FBDA936B13F0FF0FD2D12046FFF758FC90
:10192000012070BD00C00240014B024A1A6070479E
:10193000D018FF1F0320003838B590F90530002B70
:1019400003DBBDE8384000F013BC04460121006908
:1019500000F04EFCF8B1257D104B13EB45151AD065
:10196000A3790F4A012B9CBFA369EB61E36912685D
:101970006B831B0CAB8232B105F1160105F1180027
:1019800090472B8B6B82637903F07F036371BDE813
:10199000384000F0EDBB002038BD00BFE418FF1F49
:1019A000D818FF1F10B500F1080204460121006A93
:1019B00000F012FD50B1E3693BB96379A268E261BE
:1019C00063F07F036371012010BD012010BD00BFD3
:1019D00070B50646FFF7E6FF98B1326AB568117C2C
:1019E00053691479023D8D40013B74B11D4402E0FE
:1019F00014F0FF0407D0601900F06AFC013C0028D5
:101A0000F6D1002070BD336A197CB0694FF40072C2
:101A100002FA01F30344B361012070BD82790AB96F
:101A20000020704710B50446FFF786FF18B1002369
:101A3000A371012010BD002010BD00BF70B44B1E6B
:101A400001F10A04202203F8012FA342FBD101383F
:101A50000025072610F8014F2CB32E2C1ED0164A55
:101A600001E09C4217D012F8013B002BF9D1AE42A5
:101A70001FD3A4F121025D2A1BD8A4F16102192A07
:101A800005F1010398BF203C0D44DBB298BFE4B2DE
:101A90002C701D46DEE7002070BC70470A2EFAD07D
:101AA00008250A26D6E70B78B3F1200018BF0120DD
:101AB000F2E71846F0E700BF74CB000038B5837931
:101AC0003BB991F82020102A0D46044603D0202A65
:101AD00010D0002038BD022282714A8CC3615301AC
:101AE000836100230120607123752562A360E36098
:101AF000236138BD03238371496AC16100F1180273
:101B0000284600F039FC0028EBD1E2E7837913B9CD
:101B10004FF0FF3070472DE9F04F8B464179C907F0
:101B200083B005465BD5C1688469641A944228BFB6
:101B3000144626460194002C69D01A46022ADFF882
:101B4000FC903D4FDFF8F880C1F3080A42D0286AC4
:101B50000479013C04EA5124E4B2BAF1000F62D1E5
:101B6000002C60D1002956D1EA69AA6090F810E0F3
:101B70004169023A02FA0EF221441144CAF5007496
:101B80006A79B442A8BF344653062DD4B4F5007F19
:101B90002AD00846002100F02BFB00B30AEB090E07
:101BA0000EEB040086450BD00BF1FF32734613F8A1
:101BB000011B02F8011F9842F9D1CEEB00008344CB
:101BC000E968361B2144E96021D0AA79022AC1F3D1
:101BD000080ABCD12A6A506A00EB5121CEE74FF0C7
:101BE000FF3003B0BDE8F08F3A689142D1D0D8F809
:101BF00000000378FE2B18D05A46FFF789FD002815
:101C0000EDD0E968361B2144A344E960DDD1019899
:101C100003B0BDE8F08F05F10802A96800F074FB7D
:101C20000028DCD0286AAA68A0E75846FFF7AAF97E
:101C3000B0FA80F04009E2E7740DFF1FE418FF1FBF
:101C4000E018FF1F8379012B17D930B5C36883B023
:101C500001220DF107010446C3F34315FFF756FFB8
:101C6000012802D0002003B030BDE36804481F33D0
:101C700000EB4510E36003B030BD0020704700BFAB
:101C8000E418FF1FF8B5837913B182698A4201D243
:101C90000020F8BD022B0F4605461AD007B32B6A69
:101CA000E9681C7C4A1E04F109037C1EDA40DC4012
:101CB000A24211D9EB69AB6005F1080606E0A968FC
:101CC000286A00F021FB013C0028E1D03246002CBC
:101CD000F5D1EF600120F8BD0029EBD0A41AEBE7A5
:101CE000AF60EF600120F8BD83790BB1FFF724BE30
:101CF000184670478379012B01D000207047F0B55A
:101D00004579AC0783B002461CD585698D420C46E7
:101D100018D3D5B12546D6681446FFF7B3FF88B16E
:101D2000B5B9E169206A00F0E1FB58B1E56122E054
:101D300000F0DCFB30B16FF07042A168206A00F067
:101D4000C3FBC0B9002003B0F0BD184603B0F0BD1E
:101D500001AAA168206A00F0D7FA0028F2D0206A10
:101D60000F4B90F8207001994FF6F872102F08BFB2
:101D700013469942DCD36379A279A56163F07F03AE
:101D80006371002ADED02046FFF7D6FD0028D9D0A7
:101D9000B5422946204628BF3146FFF773FFD2E7F8
:101DA000F8FFFF0F70B51D4B03EB4116F37A13F0EC
:101DB000110F02D012F0420F1ED1194B01751B6892
:101DC0000361738BB18A43EA0141C161F37A13F075
:101DD0001803154604460DD1F3698361012383710D
:101DE00005F00F03002163716B06A160E1600FD461
:101DF000012070BD102B01D0002070BD00F1180231
:101E0000006A00F0B9FA0028F6D00423A371E7E7CE
:101E10002046BDE87040FFF76DBF00BFE418FF1F0C
:101E2000740DFF1F2DE9F04784B001AF06460C4644
:101E3000104639469946FFF701FE78B30022216A21
:101E4000316213461546A260E260DFF8008108E0C7
:101E5000E52B1CD001460B22384603F043FD88B326
:101E6000E368A2699A421DD92046C3F3431AFFF7DB
:101E7000E9FE98B10378002BEAD15DB9D8F80030BB
:101E800086F814A03361037823B10125E8E7002D1B
:101E9000FBD1F3E709F01203122B1DD0002004B090
:101EA000BDE8F08709F01203122BF7D1A5B9A37989
:101EB000022BF3D02046FFF78BFD0028EED0214CFB
:101EC000357514E009F03003302BE7D04A4651460F
:101ED0003046FFF767FFE2E70121306900F088F93B
:101EE0000028DBD0347D174B13EB4414D6D02022CE
:101EF0000021204603F08CFD97E80700234603C32A
:101F0000114923F8022B0D68120C1A709DB104F1CF
:101F10000E0104F11000A847238AE289638223831B
:101F2000E28200F025F90028B8D04A46317D3046DB
:101F3000FFF738FFB3E742F621034FF40062238234
:101F4000E281EBE7E418FF1FD818FF1F740DFF1F95
:101F500010B484791CB100205DF8044B70475DF823
:101F6000044BFFF75FBF00BF2DE9F04F8B4681792F
:101F700085B001290746019205D001233B7100205D
:101F800005B0BDE8F08F42799107F6D5530708D523
:101F9000FC68B9698C4200F0B480FFF773FE00283A
:101FA000EBD0019BFC68002B4AD0DFF8A491DFF84E
:101FB000A4A1DDF80480386A0679013E06EA5426B9
:101FC00016F0FF06C4F3080443D1002C41D1B968D0
:101FD000002973D1FA69002A00F08380BA60C4F541
:101FE0000075ADB245453AD9057C4169023AAA402F
:101FF0000E4416441FFA88F51CB9F868BA69904275
:102000004FD23046012100F0F3F80028B5D04C44FF
:1020100004EB050E74450DD00BF1FF31621E0EF17D
:10202000FF3611F8010F02F8010F9642F9D1C4EB07
:102030000E04A344FC68B8EB05082C44FC60BAD13C
:10204000BB69A34262D27A79BC6142F080027A71A4
:1020500065E0C4F50075ADB24545BA68C4D8017CE9
:102060004069023A8A400644B5F5007F1644C3D160
:10207000DAF80020964204BF4FF0FF32CAF8002081
:102080002F4A10680278FE2A314633D05A46FFF7AD
:1020900005FC00283FF471AF0BF5007B4FF4007591
:1020A000C8E700F065F800283FF467AF2549CAF893
:1020B00000600A7842F001020A70A8E703AA00F063
:1020C00023F900283FF45CAF386A1F4B90F820508A
:1020D000039A4FF6F871102D18BF19468A42FFF483
:1020E0007DAF3846FFF75EFC00283FF446AF386A04
:1020F000BA6874E75846FEF7C7FFB0FA80F04009A7
:10210000C7E7019B002B7FF450AF08E00F4B7A79B3
:102110001B6823B1019B13B142F080027A71120750
:1021200009D5BB79002B3FF428AF3846FFF704FCF4
:1021300000283FF422AF019805B0BDE8F08F00BF42
:10214000E018FF1FE41AFF1FF8FFFF0FD818FF1F4A
:10215000E418FF1F740DFF1F00B583B002AB01220E
:1021600003F8011D1946FFF7FFFE03B05DF804FBFD
:1021700070B51A4C23780BB9012070BD184D194B5E
:10218000286819680378FE2B17D0174AFFF786FBDB
:1021900088B1164E316819B900232370012070BD33
:1021A00028680378FE2B0FD00F4AFFF777FB10B19A
:1021B00000233360F0E7002070BD0B48FEF764FF9A
:1021C000B0FA80F04009E3E70748FEF75DFFB0FA98
:1021D00080F040090028EBD1EDE700BFE41AFF1FB3
:1021E000E018FF1F740DFF1FE418FF1FDC18FF1F0E
:1021F00070B5124D2B6883420E4611D00446FFF78E
:10220000B7FF08B9002070BD0D4B18680378FE2B8E
:102210000CD00C4A2146FFF77BFA0028F2D02C6044
:10222000094B197831431970012070BD21460548CA
:10223000FEF7A8FEB0FA80F04009EEE7740DFF1F2C
:10224000E018FF1FE418FF1FE41AFF1FF8B590F80D
:102250002030C469102B1A4B05460E4617461B68E2
:1022600016D004EBD1149C4216D106F07F06154A15
:1022700042F826701449287E0A78012842F00102AB
:102280000A7018D9A968114A0B4413600120F8BDDF
:1022900004EB11249C4208D000212046FFF7A8FF40
:1022A00050B195F82030102B07D1F6B2054A2346DD
:1022B00022F81670DEE70120F8BD2346D5E700BFFF
:1022C000740DFF1FE418FF1FE41AFF1FDC18FF1F27
:1022D00010B50446FFF74CFF78B1084B002103F519
:1022E000007203F8011F9342FBD1054A0549137898
:1022F0000C6043F001031370012010BDE318FF1FB1
:10230000E41AFF1F740DFF1FC36801338B4218D3FB
:1023100070B590F82030102B154B044616460D462C
:10232000C0691B680FD000EBD11098420FD105F0A7
:102330007F01104B53F8213023F0704333600120AC
:1023400070BD0020704700EB1120984207D000219B
:10235000FFF74EFF50B194F82030102BE7D1E9B2CF
:10236000044B33F811303360012070BD002070BD84
:10237000740DFF1FE418FF1F2DE9F04782B002AD76
:10238000DFF8508045F8041D044691464FF0000ADE
:102390004FF400774FF6F8760CE094F82030227C6A
:1023A0000199102B14BF4346334607FA02F29942B3
:1023B000924408D22A462046FFF7A6FF0028ECD117
:1023C00002B0BDE8F0870120C9F800A002B0BDE866
:1023D000F08700BFF8FFFF0F2DE9F04F176883B0BB
:1023E0006FB301374FF0000AC36803F1010813B35C
:1023F0008B46064691463C46002505E01C461F4696
:10240000F3680135AB4216D9A04538BF02242146F6
:1024100001AA304638BF2746FFF776FF631CD91B59
:1024200048B1019A002AE9D18B4510D01C46F368C7
:102430000135AB42E8D8002003B0BDE8F08FA1F130
:10244000010ABAFA8AFA07684FEA5A1ACCE7012C4D
:10245000F1D9F36801339C42EDD86FF07042214608
:102460003046FFF7F3FE0028E5D0A74214D2013C26
:10247000012CE0D9F36801339C42DCD8621C214670
:102480003046FFF7E3FE0028D5D0A74204F1FF3421
:1024900002D0012CEED1CEE7D9F8001059B10129B4
:1024A000C9D9F36801339942C5D83A463046FFF797
:1024B000CDFE0028BFD0C9F80070BAF1000F01D0DE
:1024C000013737600120B7E701290CD9C368013310
:1024D000994210B403D85DF8044BFFF7B7BE002053
:1024E0005DF8044B70470020704700BFF0B5022331
:1024F00083B00546134F03600C464FF6F8760FE0A5
:10250000EB6801339C4216D8FFF7A0FE98B195F80E
:102510002030019C102B0CBF33463B469C420DD211
:1025200001AA21462846FFF7EFFE2146002210B1FE
:10253000012C2846E4D8002003B0F0BD012003B0F0
:10254000F0BD00BFF8FFFF0FF8B53E4B0546196020
:102550001446DAB1042A01D90020F8BD002108464A
:10256000FFF746FE0028F7D0374B03EB041292F832
:10257000AE215206F0D11B3403EB0414D4F80A3018
:10258000632BE9D9D4F80640002CE5D00021204681
:10259000FFF72EFE0028DFD02B4AB2F80B30B3F540
:1025A000007FD9D1117C0029D6D0D389002BD3D07C
:1025B000567B002ED0D0002329762E712B74012754
:1025C00003E009290B462974C6D007FA03F0B0428C
:1025D00003F10101F5D1D68A1B4906B94E6AB2F85A
:1025E0000EE0AE60A644C5F81CE0B2F81110177CEE
:1025F0006984480106FB07E600F2FF1006EB602045
:102600006E626861B2F813100F4E01B9316A241A74
:102610000C4424FA03F340F6F4718B42EB600BD9BF
:102620004FF6F4718B4285BFD36A6B62102320236F
:1026300085F820300120F8BD0C2385F820300120DA
:10264000F8BD00BFE018FF1FE418FF1F10B4047F9F
:102650004160022CC26003D05DF8044B01F016BF4C
:1026600083685DF8044B1847F0B4464B464A986BB4
:102670005C6B01791170454922790A701A6B0079F7
:102680000870002A46D05968C9688A423ED8216835
:10269000CC8B240402F1FF3065D4C0F30E00C88354
:1026A000C88B80B2C882996B0968C88B000452D469
:1026B000C2F30E00C883C88B002480B212F1FF322F
:1026C000C88218BF01221C63596B2E4809680D6827
:1026D00000F12C04A54236D00068C46814F0804F85
:1026E0000C680D6815BF248824780235013544F044
:1026F00000440D604463996B254B09791970214999
:1027000012B14A6B12791A70F0BC7047521A1A63F0
:102710000122D9E7D86B196805681E4C0A63CC62A0
:10272000CC682D681C4E24F080440327B542CC6051
:1027300083F82D701FD1037F4260022BC2601ED030
:10274000F0BC01F0A3BE016890F82C00CC6840F00A
:1027500000404863CFE7CC8BC2F3080004F47E440A
:102760002043C883A7E7CC8BC0F3080004F47E4461
:102770002043C88394E72B461146F0BC1847836872
:10278000F0BC1847780DFF1F1F8000401C800040E0
:102790001B80004000000FFF4D26000090E80C0059
:1027A000F0B41C6859682568164F174E29432160FC
:1027B000164D17491760D66015611160417A154AA8
:1027C0005C180C3194F82C4053F8215002EBC401F2
:1027D00049680D60017A5C1803EB8101247ECD69A4
:1027E00002EBC40149680D60817A581803EB81033C
:1027F00090F84000596C02EBC002F0BC53681960BD
:10280000704700BF01401F00011000380110007820
:1028100000001F8008D1000070B5144E4FF4002551
:1028200005F58054AC4214D956F8043C013306D166
:1028300033469C420DD953F8042B0132F9D00C4990
:102840000C482A4601F0BCFE284600210AF0B8FFD9
:1028500030B9B4F57F2F06F580562546E0D170BD1E
:1028600002460549034801F0ABFEF2E70400080008
:10287000DCCD0000CC0DFF1FC4CD0000F8B51D4A13
:102880001D4B9A422FD91D4A9A422CD91C4A9A4272
:1028900029D9FFF7C1FF4FF4002300E03BB11946EF
:1028A00053F804290132F9D0B1F5FE2F1EDCDFF810
:1028B00074C0DFF874E01348134F144E144D154CD8
:1028C0001549164A4FF0FF330360CCF80030002062
:1028D000CEF80030124B38703060286020600860FD
:1028E00010601860F8BD4FF0FF30F8BD6FF00100C8
:1028F000F8BD00BF3107FF1FFFFF0F003D08FF1F9E
:10290000590BFF1FBC0DFF1FE51AFF1FF01AFF1F19
:10291000001BFF1FE81AFF1FF41AFF1F681BFF1F91
:10292000EC1AFF1FB80DFF1FC00DFF1F70B5440745
:1029300020D153071ED1002A1ADD013A22F00702E6
:1029400000F1080604460D46164401E0B4420FD0DB
:102950002046F5E802230AF02BFF08340028F5D0C2
:1029600002460849084801F02BFE6FF0010070BDD7
:10297000002070BD0549044801F022FE4FF0FF30F1
:1029800070BD00BF0CCE0000CC0DFF1FF0CD0000CD
:102990002DE9F04184B000240A9E346008783A287A
:1029A00003D0002004B0BDE8F081084698461746E1
:1029B0000D4603F065FB0A2803D8204604B0BDE8A5
:1029C000F08101AA2749681C03F0C4FA0028E8D066
:1029D000284603F055FB019B5B000B339842E0D384
:1029E00042462149E81C03F0B5FA0028D9D00B9AD9
:1029F0001C49E81D03F0AEFA0028D2D00B9BDDF88D
:102A000004E01A78D8F80010336852FA8EF252FABD
:102A100081F2C1F307210935541810E003F09AFA46
:102A200002350028BDD03368039AFA543368FA5C43
:102A30000133FF2B14443360B3D8DDF804E00949B7
:102A4000734503AA2846E9D1284602AA054903F09E
:102A500081FA0028A5D0029B2344DCB2B4FA84F0AA
:102A600040099FE728CE000030CE00002DE9F04F4E
:102A700005460246ADB0A549A54801F0A1FD2B7859
:102A80003A2B04D0002630462DB0BDE8F08FDFF899
:102A9000C892D9F80060002E40F08C810BAA9D49A5
:102AA000DFF8B8A2284603F055FA012829D0DAF851
:102AB0000030994F99480AA909AA5C1C019100921B
:102AC0003B460CAA2946CAF80040FFF761FF0028E0
:102AD00000F0A781DFF888823968D8F80040099BA8
:102AE0000C44E218B2F5FE2F00F291810A9A042AF2
:102AF00000F20181DFE812F020004D004500FF00E8
:102B00003E000B9ADAF800309A4240F05681844C2D
:102B10002168002900F05181824F834C3B68226874
:102B200082497B4801F04CFD642000F04FFB39687E
:102B300020680AF041FEBAE7DFF810A2DAF80020B8
:102B4000013240F062815A0712D00F2B00F28C81C3
:102B5000072B40F25081083BDAB20831744BCAF8B7
:102B6000001074481A700EA900F09CF9082309930C
:102B70001A46A5E0BDF830305BBA1B04C8F8003037
:102B800081E7BDF830305BBA9BB21B01C8F800305A
:102B900079E74FF47A7000F019FB6249DAF8002007
:102BA0000968614BDFF8A4A11B6859485C4C8DE8AB
:102BB0000600614901F004FDDAF800205F4954483D
:102BC00001F0FEFCDAF800300122013322603FF40C
:102BD0005AAF5B494E4801F0F3FC2468002C40F0EA
:102BE000C180DAF80030DFF848B13A6819469BF83E
:102BF0000030059158189042069040F01D810CAAB3
:102C0000099D0793114608462A46184402F09CFE87
:102C1000079B48490DF1300E1A46704600F042F904
:102C20000599069801912A460090079B4549384826
:102C300001F0C6FC099B9BF80020134409930DF199
:102C40002F054BB115F8012F3F49314801F0B8FC71
:102C5000099B01349C42F5D32D4801F099FC099A57
:102C6000DAF800303B604FF0FF3412F0070ECAF87C
:102C70000040364840F0A8809BF800503149244875
:102C80008DE818002B4601F09BFC3149204801F0EB
:102C900097FC099B63B10DF12F05002415F8012F56
:102CA00029491B4801F08CFC099B01349C42F5D357
:102CB000174801F06DFCD8F800403B68099A1C44A5
:102CC0000CA904F50020FFF731FE002840F0C08079
:102CD0001449D8F800403B68099A086823441A440C
:102CE000824288BF0A60104A11688B42BFF4CBAEA3
:102CF00013600026C7E62B461649054801F060FC24
:102D00000323C9F800306FF00206BCE638CE00009D
:102D1000CC0DFF1F10CB0000F01AFF1FFC1AFF1F85
:102D2000681BFF1FEC1AFF1FBC0DFF1F4CCE0000DD
:102D3000E51AFF1F041BFF1FB4CE0000F4CE0000F5
:102D400004CF000058CF00008CCF0000B80DFF1F4B
:102D5000CCCF000014CF0000F41AFF1FE81AFF1FA9
:102D6000001BFF1FDFF820B1DAF800209BF80030CD
:102D70004149424801F024FC0DF12F030DF13701C8
:102D8000002203F8012F8B42FBD19BF800503C49F5
:102D90002A460CA800F086F8072DDAF800303B60D0
:102DA0002A464FF0FF3496BF082209950992CAF8C7
:102DB000004063E74FF0FF3665E632492F4801F0E7
:102DC000FFFB6FF006065EE69C18CEEB020A059349
:102DD000CEEB04040CAB03EB0A015FFA8EF57246EE
:102DE000046027488BF8005000F05CF85246CDF89C
:102DF00024A0059B42E7244CCAF800101A460CA9EF
:102E00001F48237000F04EF83DE6204CE1E62049D3
:102E10001A4801F0D5FB0223C9F800306FF0030611
:102E200031E62A461B49154801F0CAFB0123C9F8BF
:102E300000304FF0FF3626E6099900930191029584
:102E4000059B15490D4801F0BBFB6FF001061AE622
:102E50003B68099A1149094801F0B2FB0423C9F8FB
:102E600000306FF001060EE60D49044801F0A8FBA2
:102E70006FF0010607E600BF30CF0000CC0DFF1F4A
:102E8000041BFF1F64CE0000E51AFF1F681BFF1F15
:102E9000A0CE00008CCE000094CF000018D000001F
:102EA000E4CF0000844641EA000313F003036DD130
:102EB000403A41D351F8043B40F8043B51F8043BFD
:102EC00040F8043B51F8043B40F8043B51F8043B04
:102ED00040F8043B51F8043B40F8043B51F8043BF4
:102EE00040F8043B51F8043B40F8043B51F8043BE4
:102EF00040F8043B51F8043B40F8043B51F8043BD4
:102F000040F8043B51F8043B40F8043B51F8043BC3
:102F100040F8043B51F8043B40F8043B51F8043BB3
:102F200040F8043B51F8043B40F8043B51F8043BA3
:102F300040F8043B403ABDD2303211D351F8043B43
:102F400040F8043B51F8043B40F8043B51F8043B83
:102F500040F8043B51F8043B40F8043B103AEDD2F2
:102F60000C3205D351F8043B40F8043B043AF9D243
:102F7000043208D0D2071CBF11F8013B00F8013B16
:102F800001D30B8803806046704700BF082A13D323
:102F90008B078DD010F003038AD0C3F10403D21A3B
:102FA000DB071CBF11F8013B00F8013B80D331F86F
:102FB000023B20F8023B7BE7043AD9D3013A11F8EF
:102FC000013B00F8013BF9D20B7803704B7843705A
:102FD0008B7883706046704708B5104C08E0236812
:102FE00059050DD423681A050FD42368DB0411D4C6
:102FF00023685803F3D500F0CBFA23685905F1D5BF
:1030000000F00EF823681A05EFD500F009F82368E0
:10301000DB04EDD500F004F8EAE700BF348004409B
:1030200008B5FFF7D9FF00BF014B10221A80704787
:1030300000200540704700BF094908B50B6830B152
:103040006A461844A2F50052904202D2086018461F
:1030500008BD02F013F90C2303604FF0FF3008BDE8
:10306000C40DFF1F084A1378802B01D00020704741
:103070000649074B07480860002119701378802B18
:10308000FCD00120704700BF03E0074044800440AB
:1030900001E0074000002822094A1378012B01D0E3
:1030A0000020704703F1804303F5FC236021197071
:1030B0001378802BFCD1034B034A1A600120704720
:1030C00003E00740448004400000060210B4114BA6
:1030D00053F8302092F8804234B1012379B182F85C
:1030E00080305DF8044B704703EBC0035B681A68DF
:1030F00051B922F002021A605DF8044B704782F861
:1031000000315DF8044B704742F003021A605DF82D
:10311000044B704708D100001C4A02EBC003012990
:103120005B6811D004291BD052F83000002280F8CF
:10313000802229B1022920D0032922D01A607047A9
:103140004FF480721A60704752F830004FF4A27248
:1031500080F880121A601A6822F020021A60704704
:1031600052F830104FF4A272012081F880021A60E8
:103170001A6842F020021A60704740F203121A6087
:1031800070474FF481721A60704700BF08D1000089
:1031900030B4054B054D064C002210211A602A6000
:1031A0002060196030BC704714D0034004D0034045
:1031B00000D003403F2801D8FFF788BF704700BF09
:1031C0003F2801D8FFF7A8BF704700BF2DE9F8439B
:1031D000054672B6224F234B234A1B683C6812688F
:1031E00062B6520102D5322B88BF0134B5B3C3F5A4
:1031F0002F3303F21F331D4EDFF86890DFF868802D
:103200009B084FF47A72A6FB031302FB04F404EB51
:10321000930472B6D9F800103A68D8F800E062B6A4
:10322000C1F52F3303F21F339B08A6FB03031EF0E7
:10323000806FC4EB93034FF47A7002D0322988BFB9
:10324000013200FB0233B3F57A7F04D3013D05D090
:1032500004F57A74DDE701F0DDF9DAE7BDE8F8831B
:103260006C1BFF1F18E000E004ED00E0176CC116B6
:10327000F8B54E4B4E48DFF85CC14E4C4E49DFF876
:1032800058E14E4E4E4D4F4F4FF000621A604FF0D6
:1032900080521A604FF000521A604FF080421A605C
:1032A0004FF000421A600022026028234EF6FF70A1
:1032B000CCF80000CEF8003023600EF5012E0B6034
:1032C00033602B6006F500263B6005F50025A36200
:1032D00007F500278B6204F5012401F5012106F6AC
:1032E000E87605F6E87507F57F6710310EF1100EE8
:1032F000203433602B60CEF800303B600B602360DD
:10330000314CBB618B6109212160A7F5002704F5D1
:103310008054203F08343A602060BB60E36047F887
:10332000041C04F5FD2407F5FE27043704F2FC74A1
:1033300022603860A360FB6044F8041C083404F683
:10334000FC74C7F8FC2F2060A4F5E124A4F2DC741F
:1033500033602B60C7F8F81F21681C4841F40071E6
:10336000216001681A4C0EF57F4E0EF1E80E07F54C
:10337000883706F5803605F5803541F0007101602B
:10338000CEF8002047F6FF710822396033602B60C9
:10339000226001F0B5F91920FFF718FF00F05EFE7A
:1033A00040F21310BDE8F840FFF710BF04E100E061
:1033B00004800340148003401C80034024800340A9
:1033C0002C8003403480034000800340048004408C
:1033D00000900C40088003400C800340431E032BE8
:1033E00014D872B60A4951F8230068B170B4094C78
:1033F000058834F81320466841F82360521B24F8EE
:10340000132062B670BC704762B6704700207047E8
:10341000C81BFF1FD01CFF1F013803280BD872B632
:10342000074B53F8203043B100205B680130002B7C
:10343000FBD162B67047002070471846F9E700BF1D
:103440001C1CFF1F30B472B62B4A13781D0706D51B
:103450002A4B196A002936D0996A002941D053783D
:103460001C0706D5254B196C00293ED0996C002904
:1034700039D09378190705D5204B196E002936D01D
:10348000996E89B1D3781B0707D51C4BD3F88020E0
:103490007AB3D3F8882011213AB162B6184B0022D2
:1034A0001A7030BC00F062BE0D21154C154D22780B
:1034B00043F8315003EBC1030830013A58602270E1
:1034C00062B630BC704704220D4C0F4D217843F892
:1034D000325003EBC20308304A1E5860227062B6B5
:1034E000EFE70521E1E70921DFE70822ECE70C22FD
:1034F000EAE71022E8E700BF34D300000000FF1F16
:10350000451CFF1FC800400088004000431E032BDD
:103510001DD81B4A400140F0100030B4104472B670
:10352000184CE25C032A1BD8DFE802F002121517E0
:1035300003220D88E25410F0080F14BFC82388231B
:1035400043EA054308310360416062B630BC70470E
:1035500008300222EDE70522EBE708300422E8E715
:10356000094A52F8230038B1084A52F82300416052
:1035700042F8231062B6E9E742F82310034AF7E75E
:103580000000FF1F541CFF1F1C1CFF1F2C1CFF1FD3
:103590002DE9F04FDFF818B3DFF818A387B044E047
:1035A000AE4F4FEA930807EBC809013ED9F8042053
:1035B00003F00803F6B2A2F1080003F0FF04002BA9
:1035C00040F0048157F838301B0C99B222F8081CDF
:1035D000002B00F0F280A24B22F8064C42F8044C7B
:1035E00053F82620002A00F06E819E4D55F82630B3
:1035F00058609D4C45F8260034F81630194424F8DC
:10360000161000F093FD002800F05681974A984B61
:1036100019F0080F00F1080018BF1346C9F804009C
:1036200047F8383008238BF800309BF80040E4B2AC
:1036300061071BD58F4B1B78ABB18F490A7802F01D
:10364000FF032AB1013BDBB20B70002B00F0EF84CB
:103650008A490A7802F0FF032AB1013BDBB20B7002
:10366000002B00F0F78004238BF8003004F00803EF
:1036700003F0FF02002B00F0D6809AF80030DBB296
:103680001E098DD19C08DFF8D49159F8342009EB3C
:10369000C401C2F38302013A49680C2A7ED8DFE8EC
:1036A00002F081817D7D7D7D7D7D477D7D7D070073
:1036B0000868734D4A68734F734E286081B240F2B8
:1036C00081606A4B6A604FF0010E0022814249F826
:1036D00034303A60C9F81020C9F8182086F800E0A4
:1036E0005E4C00F2F480B1F5D06F80F07883B1F5D4
:1036F000817F00F0628300F28782802900F0EC82F3
:10370000822940F01E83A98801F07F01042900F27C
:1037100018835E485E4C890008442270627002780B
:10372000930740F1798384F800E04FF0020ED8E26D
:10373000544F3A6842B3574B534E57491888347820
:103740000D784028864645F0020828BF4FF0400E0D
:10375000002C84F001043470CEEB00000CBF8824F0
:10376000C82409EBC80680B285F0010544EA0E447E
:103770007260188049F8384072440D7018B9BEF173
:10378000400F18BF00223A603D4B1A88B2F5A06F77
:1037900004D100219A785970404B1A70404A012395
:1037A00013703FE7364A158842F22100854200F047
:1037B000FF812E4A49F83420F0E72C4A2C4B19F0AF
:1037C000080F18BF134647F838302BE700F0CEFC3F
:1037D000344A354952F82630002B00F0B68158683B
:1037E0008C5D42F8260003F10802C9F80420032C7E
:1037F00005D8DFE804F0120F150204228A551A8852
:1038000019F0080F0CBF8823C82343EA024347F886
:10381000383007E702228A55F1E703228A55EEE79E
:1038200005228A55EBE7E00700F11A82210600F134
:103830004982A20706D51D4A1D4913780220DBB232
:1038400013700870E30602D5194B10221A7007B0E6
:10385000BDE8F08F00F0F6FD05E700BF0000FF1F98
:10386000C81BFF1F741BFF1FD01CFF1FC800400098
:1038700088004000501CFF1FD91BFF1F581CFF1F52
:103880003C1CFF1F701BFF1FD81BFF1FC0200740E1
:10389000481CFF1F841BFF1F441CFF1F982007406C
:1038A000942007401C1CFF1F541CFF1F882007404A
:1038B0008020074090200740AB4A47F83800137833
:1038C00001331370AEE643F82600A84D91E642F2AC
:1038D0002100814200F0358100F2AF81B1F5086F1F
:1038E00000F01B82B1F5106F40F02B82226AA049D4
:1038F000A8780870120600F14583D9F828209D4960
:10390000130600F13A83D9F830209A49150600F1E0
:103910002F83D9F838209749140600F12483D9F869
:1039200040209449100600F11983D9F848209149A4
:10393000120600F10E83D9F850208E49130600F1CB
:103940000383D9F858208B49150600F1F882D9F87D
:1039500060208849140600F12983D9F86820854938
:10396000100600F11E83D9F870208249120600F17A
:103970001383D9F878207F49130600F10883D9F81A
:1039800080207C49150600F11C83D9F888207949EC
:10399000140600F11083D9F890207649100600F142
:1039A000C882D9F898207349120600F1BC82724887
:1039B000724A7349019073486C4D734C049700230D
:1039C00005960295804617460E461D4603943868B4
:1039D00028B1446800F0CAFB2046002CF9D100232E
:1039E0003B60029B30681A46002342F8253028B11C
:1039F000446800F0BBFB2046002CF9D10022326065
:103A0000019A98F800301146002241F8042B039ADD
:103A10000191023B4FF0000122F81510032B09D849
:103A2000DFE813F04B0104004B0104004FF00103E9
:103A300088F800300135042D07F1040706F104066B
:103A400008F10108C3D1514C514B2278464D049FD7
:103A5000059E002129701A70130700F14F826278C9
:103A60004C49DFF810810A7010074FF00001C9F8C7
:103A70003010C9F8381000F12B824749A2780A703B
:103A80000021C9F85010C9F858101107DFF8E48078
:103A900000F1DC81E2784149364C0A7000211207BE
:103AA000C9F87010C9F8781000F1B9813378019322
:103AB000002183F00102C9F89010C9F89810002085
:103AC000029080468446044635490D7845F0020E42
:103AD00009EBCE030393019B002B039B5C600CBF9F
:103AE0008824C82444EA080385F0010449F83E30DC
:103AF00032700C70DFF87CE02A4BDFF8A4800028DD
:103B000040F02681BCF1400F1BD144F0020C09EBC0
:103B1000CC03029CDFF85CE05C60002A40F02E8160
:103B2000020442F088029DF804304EF83C20044420
:103B300033700D702346402803D100201A4A3B60A1
:103B400010801A4A0123137028E68B5D032B00F2C4
:103B50002D8101A252F823F0253600002536000001
:103B6000AF3C0000B53C0000451CFF1F741BFF1F4D
:103B7000501CFF1F0000FF1F2C1CFF1FC81BFF1F36
:103B80001C1CFF1F541CFF1FD01CFF1F34D3000040
:103B9000C4200740C8200740CC200740D020074061
:103BA000441CFF1FD81BFF1F841BFF1F94200740CE
:103BB000928892B9B14A0D784878157050708D7816
:103BC000C8789570D07010680D79157186284D7978
:103BD00089795571917100F0A580A949A94E0A789B
:103BE000307882F00105002842F002020D700CBF0F
:103BF0008821C82149F8321009EBC20280F0010087
:103C0000002130705160D4E540F20232914240F020
:103C10008D80A98801F07F01042900F292806A88D2
:103C2000002A40F08E809848CDF804E089000844CE
:103C3000017841F00201017041E742F22120814206
:103C40007BD1A988002940F0E480904B904A9148AC
:103C5000AC781D681560CDF804E00A4604702EE7C4
:103C60008D4B8E4886491A614FF0020E80F800E0B5
:103C7000854F0A708A49196099608A4E8A4D8B4C2B
:103C80009A610D213970FF213170DFF840E229700F
:103C90002270874D874A8EF800109F27012406F86E
:103CA000047C5D600470DA6007B0BDE8F08F00232B
:103CB0008B55B7E401238B55B4E44FF0000388F82B
:103CC0000030B7E67049784B80220D2008701A70DA
:103CD000A2077FF5B7ADAEE5774C4FF0020E22702C
:103CE0006270EA88724580F0A38165490D78402AA8
:103CF000944645F0020E28BF4FF0400C04EB0C0335
:103D000009EBCE000293012344604FEA0C48CCEB50
:103D1000020001930022C824E4E6684A664C127847
:103D20002270DEE7664A0F21117056E7B1F5A06FE9
:103D300007D1012300220193C1E642F221329142D0
:103D4000F7D0514A0F231370544A0123137025E50D
:103D500040287FF6DAAE44F002040EEBC401029E66
:103D60004E60BAB19DF80410564A19703346403877
:103D700088F8005040334EF83420DFE69DF80430D8
:103D800033700204029B0D7042F0C80203444EF8E7
:103D90003C20D0E69DF804101970029B404A88F838
:103DA0000050403840334EF83420C7E619F0080F71
:103DB0000CBF022303238B5534E4A98801F07F0153
:103DC0000429BED86A88002ABBD12F48CDF804E068
:103DD00089000844017821F0020101706FE63A4A37
:103DE0005468002CADD06888B5F804E003E00C32CC
:103DF0005468002CA5D013888342F8D153887345AA
:103E0000F5D1000A03280CBF94F800E0B2F808E0EE
:103E100067E7CDF804E052E64FF0020E61E700F0EC
:103E200085F9002800F0F18008301D4AC4F88400AC
:103E3000C4F8802000F07AF9002800F0E080083013
:103E4000204AC9F88C00C9F888202FE600F06EF9E6
:103E5000002800F0E6800830114AC8F86400C8F86D
:103E6000602000F063F9002800F0D5800830154A82
:103E7000C9F86C00C9F868200CE600BFD81CFF1F09
:103E8000441CFF1FD81BFF1FC02007406C1BFF1FD7
:103E9000E01CFF1F681CFF1F0000FF1F942007404D
:103EA0008800400088200740802007409820074075
:103EB000881BFF1FDC1BFF1F481CFF1F501CFF1F20
:103EC000D91BFF1FC800400038D300008C200740DA
:103ED00000F02CF9002800F08C8008305D4AC8F80A
:103EE0004400C8F8402000F021F900287BD00830B9
:103EF000594AC9F84C00C9F84820BEE500F016F947
:103F000000286AD00830534AC9F82400C9F8202094
:103F100000F00CF900285AD008304F4AC9F82C009C
:103F2000C9F828209BE5D1F89C00083800F01EF95C
:103F30003DE5D1F89400083800F018F931E5C86D76
:103F4000083800F013F902E5486D083800F00EF962
:103F5000F7E4C86C083800F009F9ECE4486C08385C
:103F600000F004F9E1E4C86B083800F0FFF8D6E48B
:103F7000486B083800F0FAF8CBE4C86A083800F05B
:103F8000F5F8C0E4606A083800F0F0F8B5E4C86FEE
:103F9000083800F0EBF8F2E4486F083800F0E6F873
:103FA000E7E4C86E083800F0E1F8DCE4486E083851
:103FB00000F0DCF8D1E4D1F88C00083800F0D6F835
:103FC000E9E4D1F88400083800F0D0F8DDE42A787C
:103FD000C9F8280001322A7041E52A78C9F8200082
:103FE00001322A7094E72A78C9F8480001322A7011
:103FF00043E52A78C8F8400001322A7073E72A782E
:10400000C9F8880001322A7050E52A78C4F8800087
:1040100001322A700EE72A78C9F8680001322A7046
:1040200038E52A78C8F8600001322A7019E700BE26
:10403000BEF1400FF44628BF4FF0400C04EB0C03D8
:1040400002930123CCEB0E004FEA0C4800220193AF
:104050003AE500BF88004000C80040002DE9F0416B
:10406000274C00F0E3FB002204F1A00023461A6075
:104070005A60083383424FF00001F8D12148224AA8
:104080000368DFF89CE0214E214D224FDFF894C0F9
:10409000DFF8948043F480230360136843F0407397
:1040A000136003238EF80030A023337002F5C92279
:1040B000C4F3072300F528302B708030C4F3074386
:1040C00010323B70240EFF230470134D8CF8003027
:1040D000124888F800301370012306F8AC3C4FF406
:1040E00000140EF8441C7026102107F82C3C2E708A
:1040F000046082F8F810AEF1440EBDE8F08100BF14
:104100000000FF1F3480044000D8004040210740D9
:104110009C200740B020074035E400E004E100E0C7
:1041200044210740802007408820074072B60D4890
:104130000268B2FA82F30B2B10DC4FF00041D94039
:1041400022EA0102026062B6074803EBC303DB0008
:10415000C2180021C15010465160704762B600205D
:10416000704700BFC80DFF1FD003FF1F0D4B0E4A45
:10417000C31AA2FB03231B090B2B0CD80B4A127882
:1041800052B972B60A484FF00041026821FA03F3AF
:104190001A43026062B67047064A1278002AF0D0CD
:1041A000FFF750B9D003FF1F398EE338451CFF1FBE
:1041B000C80DFF1F501CFF1F38B50F4D286878B180
:1041C00043880288C118013393420C7A02D243809B
:1041D000204638BDFFF7CAFF002320462B6038BDBC
:1041E000064B1B782BB10320FFF7F8F82860002856
:1041F000E6D14FF0FF3038BD641CFF1F501CFF1F7D
:1042000010B5094C206818B143881844007A10BDD5
:10421000064B1B782BB10320FFF7E0F82060002845
:10422000F2D14FF0FF3010BD641CFF1F501CFF1F68
:10423000044B054A1B6890881BB11A885B88D31A07
:1042400018447047641CFF1FD01CFF1F0B4B1B78CA
:104250009BB110B50A4C206848B1FFF787FF0023D7
:1042600003202360FFF7BAF830B1FFF77FFF032088
:10427000FFF7B4F80028F8D110BD7047501CFF1F9D
:10428000641CFF1F2DE9F04FDFF8F89083B0012286
:1042900089F80020019169B3DFF8EC80354F019E69
:1042A0008346D8F80000B0B3334D4488C4F14001D0
:1042B000B14228BF314604EB010E00221FFA8EFEE8
:1042C0002A70761AA0F802E000F1080251B1013C10
:1042D000224459441BF8014B02F8014F8B45F9D198
:1042E000B0F802E0BEF13F0F0BD8244A052111704F
:1042F000002ED6D10198002389F8003003B0BDE824
:10430000F08F4022028001460420FFF7FFF80022D0
:10431000C8F80020E9E73A7822B3194C164D4FF05F
:10432000010A07E0013C16D02A78A2B900F072F920
:104330003A78BAB10420FFF76FF80728F2D889F865
:1043400000A0FFF7F3FEC8F800000028ADD10D4B28
:10435000013C1870E8D101234FF0FF302B7003B0FF
:10436000BDE8F08F00234FF0FF3089F8003003B034
:10437000BDE8F08F501CFF1F601CFF1F581CFF1F63
:1043800021480100591CFF1F5C1CFF1F00B583B0B2
:1043900002AB012103F8010D1846FFF773FF03B0CC
:1043A0005DF804FB38B50E4D0E4C286801232370D0
:1043B00028B1408800232370C0F1400038BD0A4B6B
:1043C0001B7813B90020207038BD0420FFF724F8B3
:1043D0000728F7D8FFF7AAFE28600028E9D1F1E7FF
:1043E0005C1CFF1F591CFF1F501CFF1FF8B5114B11
:1043F0001B788BB1104E114D346801272F7064B1BA
:104400000F4A638800271770214623800420FFF796
:104410007DF8376000232B70F8BDFFF787FE084B4F
:1044200028B1014604201C70FFF770F8F2E71F70F6
:10443000F0E700BF501CFF1F5C1CFF1F591CFF1F33
:10444000581CFF1F38B50E4B1B7873B90D4C2168F3
:1044500061B103F0FF054B880B800420FFF756F88D
:10446000256038BD084B01221A7038BDFFF75EFE8B
:104470000028F7D00146BDE838400420FFF746B8D1
:10448000591CFF1F5C1CFF1F581CFF1F10B4EFF3CB
:10449000108272B6437F33B9017F012908D0032906
:1044A00010D00123437702B962B65DF8044B704720
:1044B000114C2168A1B1114943610B688361086007
:1044C0005861EEE70E4C216881B10E4943610B68DB
:1044D0008361086058610C4B4FF080511960E0E730
:1044E000064B4161816120601860DAE7054B41614C
:1044F000816120601860EEE7781CFF1F741CFF1FAD
:104500006C1CFF1F701CFF1F04ED00E070B5EFF383
:10451000108272B60C4C206880B10C4E00254369A5
:10452000236073B19D6102B962B64577836898478D
:10453000EFF3108272B620680028F0D102B962B69B
:1045400070BD3360EFE700BF6C1CFF1F701CFF1FC6
:10455000FFF7DCBF024A136801331360704700BFE6
:104560006C1BFF1FF8B50E4671B17AB107461446B1
:1045700000253B6816F8011B1B6838469847013C2C
:104580000544F6D12846F8BD0846F8BD1046F8BDEA
:1045900000B5064A036812885B6883B001A9ADF8CC
:1045A00004200222984703B05DF804FB08D3000002
:1045B00010B5036814465B689847204610BD00BFDD
:1045C0000EB400B582B003AA52F8041B019205F0A4
:1045D0006FF902B05DF804EB03B0704708B5FBF764
:1045E00059FFFBF743FF00F015F8FAE7FFF72EBE7F
:1045F000FFF706BEFFF7E0BDFFF71ABEFFF7F6BEF6
:10460000FFF7D0BE08461146FFF73CBE0846FFF74D
:10461000BDBE00BF2DE9F843314E337893B1314F21
:104620003A787AB90122D9073A7036D49A0719D460
:1046300000225B073A7005D52B4B1A6812B1EFF3D5
:1046400005820AB1BDE8F883EFF3108172B61868ED
:1046500018B1264C2278002A2ED00029F2D162B659
:10466000BDE8F883DFF8908098F80020002ADFD0BA
:10467000DFF88890002405E0013498F80030E4B2B7
:10468000A34212D959F824502B6828461B69984731
:104690000028F1D02B699847EEE7FFF7C9FDC8B9AC
:1046A000134B1B781BB93378C0E73378C0E73378F6
:1046B00003F0FE033370B9E745691D6001232370E1
:1046C0005DB1AA6101B962B6002545778368984754
:1046D0002570B7E700F0ECF8E2E7064B1D60F1E764
:1046E000DC0DFF1F7D1CFF1F781CFF1F7C1CFF1FA4
:1046F000820EFF1F741CFF1F981CFF1F801CFF1FD2
:1047000030B42948294A2A4B2A4D6024E1210470FB
:1047100011701B78284C082B30D00A2B27482849C9
:1047200037D00C2B0CBF35225D2212232A60236068
:1047300002600B60234B24491B78244ABBB1012340
:104740000B601360224B23491B78234A012B26D987
:10475000042B0FD9082B1ED9102B94BF8623872337
:104760000B6013601D4B01221A7030BC70470B6048
:104770001360E7E784230B601360F3E700F58E20F6
:104780000F490830212213232A60236002600B6046
:10479000D0E73922F7E785230B601360E2E7802337
:1047A0000B601360DEE700BF004007400140074098
:1047B000DD0DFF1F08B003400CB0034008B00B40F4
:1047C0000CB00B407F1CFF1F20B0034020B00B40FB
:1047D000DE0DFF1F24B0034024B00B407E1CFF1FE2
:1047E000F0B44D1E2E46002400E00134B0FBF2F37D
:1047F00002FB1300092800F130078ABF3730F8B2F6
:10480000C0B206F8010F1846002BEED10A195370FA
:104810004CB1107815F8016F28700133E01A83420B
:1048200002F80169F5DB0846F0BC704710B584B0AA
:1048300072B6FEF717FC184A184B1949116070221E
:1048400080211A701A46197013781B06FCD5154B77
:104850001C68FEF721FC62B6134B9C429CBF04EB24
:10486000840464002046114C01A90A22FFF7B8FF16
:1048700001A92046002311F8012B01333AB10A2B7C
:1048800020F8022FF7D11623237004B010BD5B006F
:10489000DBB2237004B010BD0400024000000240EF
:1048A000000007410C0002407F9698006C0EFF1F2D
:1048B000704700BF0B460146184600F0D9BC00BF48
:1048C00081F0004102E000BF83F0004330B54FEAC1
:1048D00041044FEA430594EA050F08BF90EA020F2E
:1048E0001FBF54EA000C55EA020C7FEA645C7FEAC1
:1048F000655C00F0E2804FEA5454D4EB5555B8BFE4
:104900006D420CDD2C4480EA020281EA030382EA54
:10491000000083EA010180EA020281EA0303362DE6
:1049200088BF30BD11F0004F4FEA01314FF4801CB9
:104930004CEA113102D0404261EB410113F0004FCB
:104940004FEA03334CEA133302D0524263EB430382
:1049500094EA050F00F0A780A4F10104D5F1200E20
:104960000DDB02FA0EFC22FA05F2801841F100017B
:1049700003FA0EF2801843FA05F359410EE0A5F14F
:1049800020050EF1200E012A03FA0EFC28BF4CF080
:10499000020C43FA05F3C01851EBE37101F0004536
:1049A00007D54FF0000EDCF1000C7EEB00006EEB43
:1049B0000101B1F5801F1BD3B1F5001F0CD34908CD
:1049C0005FEA30004FEA3C0C04F101044FEA445224
:1049D00012F5800F80F09A80BCF1004F08BF5FEAAB
:1049E000500C50F1000041EB045141EA050130BD8B
:1049F0005FEA4C0C404141EB010111F4801FA4F12E
:104A00000104E9D191F0000F04BF01460020B1FA82
:104A100081F308BF2033A3F10B03B3F120020CDABA
:104A20000C3208DD02F1140CC2F10C0201FA0CF098
:104A300021FA02F10CE002F11402D8BFC2F1200CFD
:104A400001FA02F120FA0CFCDCBF41EA0C019040B3
:104A5000E41AA2BF01EB0451294330BD6FEA0404FC
:104A60001F3C1CDA0C340EDC04F11404C4F12002E7
:104A700020FA04F001FA02F340EA030021FA04F3F9
:104A800045EA030130BDC4F10C04C4F1200220FA50
:104A900002F001FA04F340EA0300294630BD21FA8E
:104AA00004F0294630BD94F0000F83F4801306BF54
:104AB00081F480110134013D4EE77FEA645C18BF48
:104AC0007FEA655C29D094EA050F08BF90EA020FDF
:104AD00005D054EA000C04BF1946104630BD91EAD7
:104AE000030F1EBF0021002030BD5FEA545C05D1DA
:104AF0004000494128BF41F0004130BD14F5800419
:104B00003CBF01F5801130BD01F0004545F0FE418C
:104B100041F470014FF0000030BD7FEA645C1ABFC1
:104B2000194610467FEA655C1CBF0B46024650EAF8
:104B3000013406BF52EA033591EA030F41F4002124
:104B400030BD00BF90F0000F04BF0021704730B5AA
:104B50004FF4806404F132044FF000054FF000017F
:104B600050E700BF90F0000F04BF0021704730B540
:104B70004FF4806404F1320410F0004548BF404215
:104B80004FF000013EE700BF42004FEAE2014FEA6A
:104B900031014FEA02701FBF12F07F4393F07F4F45
:104BA00081F06051704792F0000F14BF93F07F4F77
:104BB000704730B54FF4607401F0004521F00041BA
:104BC00020E700BF50EA010208BF704730B54FF040
:104BD00000050AE050EA010208BF704730B511F045
:104BE000004502D5404261EB41014FF4806404F17D
:104BF00032045FEA915C3FF4DCAE4FF003025FEAFF
:104C0000DC0C18BF03325FEADC0C18BF033202EB86
:104C1000DC02C2F1200300FA03FC20FA02F001FAE0
:104C200003FE40EA0E0021FA02F11444C1E600BF7F
:104C300070B54FF0FF0C4CF4E06C1CEA11541DBF32
:104C40001CEA135594EA0C0F95EA0C0F00F0DEF8FD
:104C50002C4481EA030621EA4C5123EA4C5350EAE2
:104C6000013518BF52EA033541F4801143F4801333
:104C700038D0A0FB02CE4FF00005E1FB02E506F0C4
:104C80000042E0FB03E54FF00006E1FB03569CF019
:104C9000000F18BF4EF0010EA4F1FF04B6F5007F1F
:104CA00064F5407404D25FEA4E0E6D4146EB060691
:104CB00042EAC62141EA55514FEAC52040EA5E501A
:104CC0004FEACE2EB4F1FD0C88BFBCF5E06F1ED8C4
:104CD000BEF1004F08BF5FEA500E50F1000041EBFB
:104CE000045170BD06F0004646EA010140EA0200A8
:104CF00081EA0301B4EB5C04C2BFD4EB0C0541EACA
:104D0000045170BD41F480114FF0000E013C00F3DE
:104D1000AB8014F1360FDEBF002001F0004170BD02
:104D2000C4F10004203C35DA0C341BDC04F114041B
:104D3000C4F1200500FA05F320FA04F001FA05F2A7
:104D400040EA020001F0004221F0004110EBD37074
:104D500021FA04F642EB06015EEA430E08BF20EAA0
:104D6000D37070BDC4F10C04C4F1200500FA04F343
:104D700020FA05F001FA04F240EA020001F00041D5
:104D800010EBD37041F100015EEA430E08BF20EA48
:104D9000D37070BDC4F1200500FA05F24EEA020E90
:104DA00020FA04F301FA05F243EA020321FA04F0BF
:104DB00001F0004121FA04F220EA020000EBD37076
:104DC0005EEA430E08BF20EAD37070BD94F0000F76
:104DD0000FD101F00046400041EB010111F4801FAA
:104DE00008BF013CF7D041EA060195F0000F18BF5B
:104DF000704703F00046520043EB030313F4801F97
:104E000008BF013DF7D043EA0603704794EA0C0F50
:104E10000CEA135518BF95EA0C0F0CD050EA410666
:104E200018BF52EA4306D1D181EA030101F00041E3
:104E30004FF0000070BD50EA410606BF104619460B
:104E400052EA430619D094EA0C0F02D150EA013617
:104E500013D195EA0C0F05D152EA03361CBF104658
:104E600019460AD181EA030101F0004141F0FE41F7
:104E700041F470014FF0000070BD41F0FE4141F47B
:104E8000780170BD70B54FF0FF0C4CF4E06C1CEA7B
:104E900011541DBF1CEA135594EA0C0F95EA0C0F30
:104EA00000F0A7F8A4EB050481EA030E52EA0335EB
:104EB0004FEA013100F088804FEA03334FF080550C
:104EC00045EA131343EA12634FEA022245EA111539
:104ED00045EA10654FEA00260EF000419D4208BFEA
:104EE000964244F1FD0404F5407402D25B084FEA97
:104EF0003202B61A65EB03055B084FEA32024FF443
:104F000080104FF4002CB6EB020E75EB030E22BF9F
:104F1000B61A754640EA0C005B084FEA3202B6EB5F
:104F2000020E75EB030E22BFB61A754640EA5C000E
:104F30005B084FEA3202B6EB020E75EB030E22BF9E
:104F4000B61A754640EA9C005B084FEA3202B6EB9F
:104F5000020E75EB030E22BFB61A754640EADC005E
:104F600055EA060E18D04FEA051545EA16754FEAC0
:104F700006164FEAC30343EA52734FEAC2025FEADE
:104F80001C1CC0D111F4801F0BD141EA00014FF06D
:104F900000004FF0004CB6E711F4801F04BF01433E
:104FA0000020B4F1FD0C88BFBCF5E06F3FF6AFAE5A
:104FB000B5EB030C04BFB6EB020C5FEA500C50F1EA
:104FC000000041EB045170BD0EF0004E4EEA11316D
:104FD00014EB5C04C2BFD4EB0C0541EA045170BD74
:104FE00041F480114FF0000E013C90E645EA060EB8
:104FF0008DE60CEA135594EA0C0F08BF95EA0C0FE6
:105000003FF43BAF94EA0C0F0AD150EA01347FF42D
:1050100034AF95EA0C0F7FF425AF104619462CE704
:1050200095EA0C0F06D152EA03353FF4FDAE104667
:10503000194622E750EA410618BF52EA43067FF4B8
:10504000C5AE50EA41047FF40DAF52EA43057FF448
:10505000EBAE12E74FF0FF3C06E000BF4FF0010C53
:1050600002E000BF4FF0010C4DF804CD4FEA410CB7
:105070007FEA6C5C4FEA430C18BF7FEA6C5C1BD084
:1050800001B050EA410C0CBF52EA430C91EA030F05
:1050900002BF90EA020F0020704710F1000F91EA62
:1050A000030F58BF994208BF90422CBFD8176FEA30
:1050B000E37040F0010070474FEA410C7FEA6C5CFE
:1050C00002D150EA013C07D14FEA430C7FEA6C5C05
:1050D000D6D152EA033CD3D05DF8040B704700BF31
:1050E0008446104662468C461946634600E000BF7F
:1050F00001B5FFF7B7FF002848BF10F1000F01BD51
:105100004DF808EDFFF7F4FF0CBF012000205DF81B
:1051100008FB00BF4DF808EDFFF7EAFF34BF0120A0
:1051200000205DF808FB00BF4DF808EDFFF7E0FF39
:1051300094BF012000205DF808FB00BF4DF808ED8A
:10514000FFF7CEFF94BF012000205DF808FB00BFF1
:105150004DF808EDFFF7C4FF34BF012000205DF8D3
:1051600008FB00BF4FEA410C7FEA6C5C02D150EAB9
:10517000013C0AD14FEA430C7FEA6C5C02D152EA4F
:10518000033C02D14FF0000070474FF00100704720
:105190004A0011D212F5001211D20DD56FF47873B6
:1051A000B3EB62520ED44FEAC12343F0004343EA0B
:1051B000505323FA02F070474FF00000704750EA56
:1051C000013002D14FF0FF3070474FF000007047C0
:1051D0004FEA4102B2F1E04324BFB3F5001CDCF119
:1051E000FE5C0DD901F0004C4FEAC0024CEA507051
:1051F000B2F1004F40EB830008BF20F00100704780
:1052000011F0804F21D113F13872BCBF01F0004082
:10521000704741F480114FEA5252C2F11802C2F1B4
:10522000200C10FA0CF320FA02F018BF40F0010035
:105230004FEAC1234FEAD32303FA0CFC40EA0C00E7
:1052400023FA02F34FEA4303CCE77FEA625307D124
:1052500050EA01331EBF4FF0FE4040F4400070475B
:1052600001F0004040F0FE4040F40000704700BFF5
:1052700013460A460146022004F04ABB014B186857
:10528000704700BFB012FF1F70B50F4E0F4D761B59
:10529000B61018BF002405D0013455F8043B9847D8
:1052A000A642F9D10A4E0B4D761B08F07BFAB610D8
:1052B00018BF002406D0013455F8043B9847A64295
:1052C000F9D170BD70BD00BFC8D70000C8D70000BD
:1052D000DCD70000C8D70000034A044B1268506BAB
:1052E000002808BF18467047B012FF1FB412FF1FF6
:1052F000044B054A1B685B6B002B08BF134693F8F1
:1053000028017047B012FF1FB412FF1FD0F8EC0045
:10531000704700BF08B5034B1868FFF7DDFFD0F8F2
:10532000EC0008BDB012FF1F024B0146186800F0E8
:105330000BB800BFB012FF1F024B0146186805F002
:105340005BBB00BFB012FF1F2DE9F04F01F10B0551
:10535000162D83B0064640F29F8035F0070500F118
:10536000BF80A94200F2BC8000F0A0FBB5F5FC7F35
:10537000C0F09C826B0A00F0BA80042B00F283819B
:10538000A80900F1390E4FEA4E033830C44F07EB3D
:105390008303A3F108015C68A14207D1ACE0002AB5
:1053A00080F2AC80E468A14200F0A680636823F03C
:1053B00003035A1B0F2AF2DDB9493C6901F1080EBB
:1053C000744500F0B381636823F003035A1B0F2A6E
:1053D00000F39981002AC1F814E0C1F810E080F2CE
:1053E0009E80B3F5007F80F06781DB0803F1010C3C
:1053F00001229B1002FA03F34A6851F83C80C4F87A
:10540000088001EBCC091A43A9F10803E3604A6064
:1054100041F83C40C8F80C40831001249C40944261
:1054200000F28A80144206D120F003006400144286
:1054300000F10400FAD007EBC009CC468046DCF846
:105440000C108C4507D173E1002A80F28181C96874
:105450008C4500F06D814B6823F003035A1B0F2A23
:10546000F2DD0C46D1F80CC054F8088F4B1945F00A
:1054700001054D6042F00101C8F80CC03046CCF87F
:1054800008807B613B61C3F80CE0C3F808E0596019
:105490009A5000F00DFB1FE0102921D800F006FB08
:1054A0001025062302207E4F07EB8303A3F1080299
:1054B0005C68944200F045816368E168A56823F068
:1054C0000303234430465A68E96042F001028D60CC
:1054D0005A6000F0EDFA0834204603B0BDE8F08FC2
:1054E00000240C232046336003B0BDE8F08F8023F6
:1054F0004FF0400E3F2049E770465DE72344E168E6
:105500005A68A56842F00102E96030468D605A6031
:1055100000F0CEFA0834204603B0BDE8F08F2344F3
:1055200030465A6842F001025A6000F0C1FA08346D
:10553000204603B0BDE8F08FBC68636823F0030821
:10554000A84504D3C5EB08030F2B00F38C80554B03
:10555000DFF860911A68D9F8003001332A4404EB6F
:10556000080A00F0608102F580520F3222F47F6257
:1055700022F00F0211463046019200F08BFCB0F190
:10558000FF3F8346019A00F05881824500F2FC807B
:10559000454B1968DA451144196000F05381D9F878
:1055A0000000DFF810E101301BBFCAEB0B0A5144C9
:1055B000CEF800B019601BF0070100F01781C1F1AF
:1055C0000800C1F58051834408315A44C2F30B02EC
:1055D000C2EB010949463046019300F05BFC431CD5
:1055E000019B00F03F81CBEB00024A4442F00102F4
:1055F0001968C7F808B04944BC42CBF804201960C8
:10560000DFF8A49016D0B8F10F0F40F2FD80626869
:10561000A8F10C0323F00703E01802F001024FF099
:10562000050E1A430F2B6260C0F804E0C0F808E0D2
:1056300000F21C811D4BBC681A68914288BF19603A
:105640001B4B1A689142626888BF196022F00302FE
:105650009542A2EB050301D80F2B04DC304600F085
:1056600027FA002438E7621943F0010345F00105E9
:1056700065603046BA60536000F01AFA083420467C
:1056800003B0BDE8F08F142B71D9542B00F2A48025
:10569000280B00F16F0E4FEA4E036E3076E600BF26
:1056A0002014FF1FA41CFF1FA81CFF1FA01CFF1F0E
:1056B0009C1CFF1F2C18FF1F5A0A042A5ED9142AAB
:1056C00000F2B38002F15C0149005B3207EB810C10
:1056D00057F82110DFF8DC81ACF1080C8C4500F0A4
:1056E00088804A6822F00302934202D289688C457E
:1056F000F7D1D1F80CC07A68C4F80CC0A160CCF81E
:105700000840CC6088E6631942F0010745F00105C6
:10571000656030464B610B61C3F80CE0C3F808E0EC
:105720005F609A50083400F0C3F9D5E64A6873E622
:1057300008F1010818F0030F0CF1080C7FF47FAE9C
:1057400030E0DC68A34208BF02303FF435AEB3E678
:105750000B440C465A68C96854F8085F42F00102CD
:105760005A603046E9608D6000F0A2F9B4E603F1BA
:105770005C0E03F15B004FEA4E0307E69A0902F163
:10578000390149003832A1E7BC424A4B3FF400AF2F
:105790009C68626822F003025AE759F80839994573
:1057A00040F0828010F0030F00F1FF30F5D17B68EC
:1057B00023EA04037B6064009C423FF6BDAE002CEC
:1057C0003FF4BAAE1C4240467FF435AE64001C4242
:1057D00000F10400FAD02EE6B3F5AA7F18D8E80B42
:1057E00000F1780E4FEA4E037730CFE54FF4805149
:1057F000EBE60121D8F80430921001FA02F21A43C4
:10580000C8F80420614677E70123CBF8043025E788
:1058100040F25452934220D8A80C00F17D0E4FEA7A
:105820004E037C30B2E51032A4E6542A26D81A0B77
:1058300002F16F0149006E3248E7BC68626822F0ED
:10584000030205E7CAF30B0000287FF4A8AE424428
:10585000BB6842F001025A60ECE6FE234FF07F0E77
:105860007E2093E501224FF00009C1E604F1080112
:10587000304605F0C1F8D9F80010DBE6B2F5AA7F92
:1058800005D8DA0B02F17801490077321EE740F2C1
:1058900054518A4205D89A0C02F17D0149007C32AC
:1058A00014E7FE217E2211E77B6884E7E808431CA9
:1058B0005B00F8E52014FF1F82B049B15AB16BB10B
:1058C00013780B601278101C18BF012002B07047CB
:1058D00001A9002AF3D1104602B070476FF0010011
:1058E000F4E700BF032A70B426D940EA01039B07FE
:1058F00011D004780D78AC4222D10244431C05E05B
:1059000013F8014B11F8015FAC4219D19342F7D162
:10591000002070BC70470C4603461E682568AE42E6
:105920001846214603F1040304F10404E1D1043ACA
:10593000032A18462146F0D8002ADAD11046E8E7B3
:10594000601B70BC704700BF8842F0B50DD98B1842
:1059500098420AD28118002A51D09A1A13F8014DA0
:1059600001F8014D9342F9D1F0BD0F2A48D941EA1F
:1059700000039B0746D100F1100401F11003154606
:1059800053F8106C44F8106C53F80C6C44F80C6C21
:1059900053F8086C44F8086C103D53F8046C44F854
:1059A000046C0F2D03F1100304F11004E8D8A2F1E8
:1059B000100323F00F0302F00F0E1033BEF1030F9C
:1059C0001944034421D91E1F0D467446043C55F862
:1059D000047B46F8047F032CF8D8AEF1040424F0CD
:1059E000030404342344214402F0030262B1013B66
:1059F0000A4411F8014B03F8014F8A42F9D1F0BD76
:105A00000346F3E70346F2E7F0BD7246EEE700BF58
:105A100070B4840746D0541E002A41D0CDB203464C
:105A200002E0621EE4B3144603F8015B9A07F8D162
:105A3000032C2ED9CDB245EA05250F2C45EA0545A4
:105A400019D903F110022646103E0F2E42F8105CC1
:105A500042F80C5C42F8085C42F8045C02F1100267
:105A6000F2D8A4F1100222F00F0204F00F04103259
:105A7000032C13440DD91E462246043A032A46F845
:105A8000045BFAD8221F22F003020432134404F00C
:105A900003042CB1C9B21C4403F8011BA342FBD17F
:105AA00070BC704714460346C2E700BF704700BF92
:105AB000704700BF2DE9F04F174683B0002900F072
:105AC000C1800E46814607F10B05FFF7EFFF56F840
:105AD00004EC162D2EF00304A6F1080840D810227D
