:1000000000800020BD01000035DF0000EDDE0000B3
:10001000EDDE0000EDDE0000EDDE0000EDDE0000B4
:10002000EDDE0000EDDE0000EDDE000035DF00005B
:1000300035DF0000EDDE000035DF0000DDDE000012
:1000400035DF000035DF000035DF000035DF000060
:1000500035DF000035DF000035DF000035DF000050
:1000600035DF000035DF000035DF000035DF000040
:1000700035DF000035DF000035DF000035DF000030
:1000800035DF000035DF000035DF000035DF000020
:1000900035DF000035DF000035DF000035DF000010
:1000A00011CC00001DCC000035DF000035DF000062
:1000B00035DF000035DF000035DF000035DF0000F0
:1000C00035DF000035DF000035DF000035DF0000E0
:1000D00035DF000035DF000035DF000035DF0000D0
:1000E00035DF000035DF000035DF000035DF0000C0
:1000F00035DF00006DED000035DF0000B1F40000D9
:1001000035DF00009D0E010035DF000035DF000007
:1001100035DF000035DF000035DF000035DF00008F
:1001200035DF000035DF000035DF000035DF00007F
:1001300035DF000035DF000035DF000035DF00006F
:1001400035DF000035DF000035DF000035DF00005F
:100150001D06010031060100450601005906010097
:1001600035DF000031F7000035DF000035DF00002B
:1001700035DF000035DF000035DF000035DF00002F
:1001800035DF000035DF000035DF000035DF00001F
:1001900035DF000035DF000035DF000035DF00000F
:1001A00035DF000035DF000035DF000035DF0000FF
:1001B00035DF000035DF000035DF0000564B4CF224
:1001C000205210B51A804DF628121A8000BF00BFC9
:1001D00008F018FA514B4FF010621A60504A9A60BA
:1001E000504ADA60504A136813F4807304D14F49BF
:1001F0000B604FF4A85313604D4B1A78110703D5C9
:100200001A7842F008021A704A4B4B492A221A7097
:100210004A4A4B4B8B4204D252F8040F43F8040B6A
:10022000F8E7484B484900228B4202D243F8042B9E
:10023000FAE74649464A002352F8230041F82300D2
:1002400001336F2BF8D1434B434A802103F8011B44
:100250009342FBD1414B3D4A1A60414B8A221A70AE
:10026000A3F5805324225A70A0221A709A7992071B
:10027000FCD59A79D406FCD43A4A937903F00C035E
:10028000082B384BF9D103221A7140225A719A79FE
:100290009006FCD5334A9179324B4906FBD5324A58
:1002A000324911600221516020221A709A7902F0BD
:1002B0000C020C2AFAD12E4B2E4A1A602E4B2F4AD2
:1002C0001A6000225A60072243F8042C2C4AC3F813
:1002D0000C2D62B60EF0B8F9144B1B68DA0705D581
:1002E00028480DF087FF284B284A1A60284B1B78B6
:1002F0005B0609D5244C254B22689A4204D121483B
:100300000DF078FF0023236012F086FD0DF016FE3D
:1003100010F010FBFEE700BF0E20054030800440C7
:10032000823F04000100002B10D0034014D0034092
:1003300002D0074000E00740789CFF1F08E0010062
:100340002089FF1F789CFF1F84A4FF1F0084FF1FCC
:100350000000000000E400E05FE400E008ED00E0E1
:100360000050064000400640448004400000030165
:1003700004800440C010050014E000E0FF76010096
:1003800000002020A40716591CE00340A5C3945A7E
:1003900000F00740FFFFFFFFFFFFFFFFFFFFFFFF32
:1003A000FFFFFFFFFFFFFFFFFFFFFFFFFFFFFFFF5D
:1003B000FFFFFFFFFFFFFFFFFFFFFFFFFFFFFFFF4D
:1003C000FFFFFFFFFFFFFFFFFFFFFFFFFFFFFFFF3D
:1003D000FFFFFFFFFFFFFFFFFFFFFFFFFFFFFFFF2D
:1003E000FFFFFFFFFFFFFFFFFFFFFFFFFFFFFFFF1D
:1003F000FFFFFFFFFFFFFFFFFFFFFFFFFFFFFFFF0D
:10040000FFFFFFFFFFFFFFFFFFFFFFFFDEF9FFFF23
:1004100010B5054C237833B9044B13B10448AFF33E
:1004200000800123237010BD789CFF1F0000000096
:1004300004E00100084B10B51BB108490848AFF3B0
:1004400000800848036803B910BD074B002BFBD0A0
:10045000BDE81040184700BF000000007C9CFF1F53
:1004600004E00100789CFF1F000000002DE9F0432C
:10047000012183B00F200EF071F82D4B2D4F2E4D22
:1004800001241C60214610200EF068F83C602146D3
:1004900011200EF063F802233B602646A046002799
:1004A0002868A946002838D001231A461946CDF8F5
:1004B00000800BF0DBF90023D9F8000000971A4602
:1004C00019460BF001FA04350024E1B2002255F878
:1004D000040C01340BF046FA042CF6D10136042E3C
:1004E000DED11649164801220224026020230A6048
:1004F0000C60013BFDD1134BCA6340F8442C03F15F
:10050000140141F60A2240F8444C23F8022B994288
:10051000FBD1002003B0BDE8F083342010F012FAC4
:10052000F1B204460BF074F92C602046BCE700BF22
:1005300084F00F4044F00F40949CFF1F48F00F40A0
:1005400088F00F40A09CFF1FE0B170B5441E092C3D
:100550000D4624D8B5F5805F15D2154E36F8143007
:10056000ADB2AB420BD0134B134A33F91410134BFB
:1005700052F8210013F814102A460BF0F3F926F86C
:10058000145070BD70470A4E0D490E484C2207F0BA
:1005900019FC36F81430ADB2AB42E4D1EFE7482293
:1005A0000749084807F00EFCB5F5805FD5D3EAE7A8
:1005B000A09CFF1F88B20100949CFF1F9CB2010009
:1005C000B0B2010008B3010010B40848084C012380
:1005D00002212360202203600160013AFDD1054A17
:1005E000C36310BC13601160704700BF48F00F4038
:1005F00088F00F4044F00F40072A00F2A880072936
:1006000000F2A5802DE9F04F83B00D460B4616464B
:100610005FFA80F800924F49DFF860914E4C024635
:100620004E4810F03BF8404601210DF097FF0A209C
:100630000DF0BCFF59F83830617B20694FF0010A9A
:1006400083F880A00BF046FC454A206945490BF031
:1006500065FBEFB24FF4FA700DF0A8FF204647F0AB
:1006600060010BF00BFDB900F7B24FEA870B41F0C8
:1006700061015FFA8BFB01F0FD0120460BF0A6F94A
:100680004BF0620120460BF0A1F94BF063012046CC
:100690000BF09CF9B30043F06301AA0043F062033E
:1006A0000191009330492D4842F0610345F0C002AA
:1006B0000FF0F4FF72B600235246617B20690BF005
:1006C000EBFC4FF4B353013BFDD159F8383083F8BC
:1006D00000A162B60022617B20690BF003FF504548
:1006E00014BF11211421054614BF204820480FF0E3
:1006F00051FD1A480FF0BAFF4FF47A700DF056FF13
:1007000059F8383014484FF0010847F0600183F879
:1007100080800BF0B3FC002706210F480BF056F940
:10072000627B21690C48009743460BF04BFF40B1B8
:100730002069104A0B490BF0F1FA284603B0BDE8D6
:10074000F08F32460C4905480FF0A8FFF0E74FF054
:10075000FF30704724B30100B4A0FF1F78A3FF1F30
:10076000A0860100006CDC0254B301006CB30100F0
:1007700080B30100801A060098B30100B0D80100D0
:10078000014B01221A7070472C8CFF1F38B50F4C9B
:10079000206878B10E490AF081FB20680D490AF003
:1007A00059FB206800210AF0EBFB2068BDE83840C7
:1007B0000AF014BB102010F0C5F8074A0749054697
:1007C0000AF004FB25602846E4E700BFB49CFF1F45
:1007D0000000484300002F44CDB70000DDB8000002
:1007E00038B51A4C206830B30AF0D6FB2068184997
:1007F0000AF030FB206817490AF050FB20680021FE
:100800000AF0BEFB20684FF400410AF0EDFB2068BF
:1008100047F6FF710AF0F6FB022120680AF000FC9F
:1008200020680AF0D7FB20680AF0D8FA0C20BDE84F
:1008300038400DF0EFBD102010F084F8064A07494B
:1008400005460AF0C3FA25602846CDE7B49CFF1F91
:100850000000164400002041CDB70000DDB80000C4
:100860002DE9F04F3E4B1B6803EB810385B000215F
:10087000D3F8B0B0D3F8DCA0D3F80891D3F8347132
:10088000D3F86061054612F071F800285FD129465F
:100890000446284611F0D6FE80460146284611F04F
:1008A000D1FE01460390284611F0CCFE594611F0C6
:1008B000C9FE2C4911F07AFF11F01AFA039BCDE919
:1008C00000011846514611F0BDFE264911F06EFF99
:1008D00011F00EFA02460B46DDE9000111F0AAF80C
:1008E00082468B464046494611F0ACFE1D4911F048
:1008F0005DFF11F0FDF902460B465046594611F0D6
:1009000099F8804689462846394611F09BFE11F039
:10091000EFF902460B464046494611F08BF88046F7
:100920003046894611F0E4F902460B4640464946F6
:1009300011F080F811F0E0FC00280CDB40F6FF73AA
:100940009842A8BF184680B205B0BDE8F08F0020DD
:1009500005B0BDE8F08F204605B0BDE8F08F00BFC0
:10096000388CFF1F286B6E4E2DE9F04F4B4D4C4FCE
:10097000DFF84C814B4CDFF84CB185B00646286857
:100980000AF08EFB11F006FE386028680AF09CFB26
:1009900011F000FEC8F8000028680AF0A9FB11F069
:1009A000F9FD206028680AF067FB11F0F3FD3E4B6B
:1009B000DFF814C11B683D68D96E1F6F01975F6F28
:1009C0009A6FCCF800000292D3F86890039011F06F
:1009D00039FED8F800A00199D4F8008004462846D2
:1009E00011F030FE0146204611F024FD3946044640
:1009F000504611F027FE0146204611F01BFD0299DA
:100A00002A4F0446404611F01DFE0146204611F0D3
:100A100011FD494611F00EFD11F0DAFF20EAE070F9
:100A200011F0BCFD224981460860304611F0B6FD48
:100A300004460146284611F0B9FEDBF800101D4EB1
:100A40001D4D11F0F7FC2146CBF80000504611F087
:100A5000ADFE1A4B196811F0EDFC184B21461860D9
:100A6000404611F0A3FE396811F0E4FC3860039AA7
:100A70002146104611F09AFE316811F0DBFC214648
:100A80003060484611F092FE296811F0D3FC2860CE
:100A9000484611F09DFF05B0BDE8F08FB49CFF1FE4
:100AA000FC9EFF1FE09CFF1F388CFF1FC49DFF1F93
:100AB000889EFF1F889DFF1F209EFF1F309EFF1FE7
:100AC000609EFF1F149DFF1FB09DFF1F2DE9F8437F
:100AD00002225A495A4E00200DF0C6FAFFF780FE56
:100AE00007F0EAF807F0CAF9A6240A21554807F0EA
:100AF00061FA002840F0818002200DF057FDB4F526
:100B0000805FA8BF0024214628200DF085FB02202D
:100B10000DF04CFD3378002B71D04B4D02200DF0C1
:100B200045FD28680AF094FA0028DED002200DF076
:100B30003DFD28680AF04EFA0123286833700AF058
:100B40009BFA074628680AF0ABFA814628680AF043
:100B5000BBFA804628680AF0CBFA054602200DF061
:100B600025FD3A4807F074F9394807F071F948460D
:100B700007F05AF9374807F0C7F8404607F054F92C
:100B8000354807F0C1F8284607F04EF9324807F01B
:100B9000BBF8384607F048F9304807F0B5F820466A
:100BA00007F032F92E4807F0AFF8384611F0F2FCA2
:100BB0002C4911F047FD11F00BFF07F025F98A2FA2
:100BC00021D9932F2BD88B2F01D9922F31D9264899
:100BD00007F09AF8254807F097F8932007F014F9E2
:100BE000234807F091F88B2007F00EF90A211548E9
:100BF00007F0E0F900283FF47FAFBDE8F8831D4817
:100C000007F026F971E70134214628200DF004FB96
:100C1000204607F033F90A200DF0C8FCD7E7013C65
:100C2000214628200DF0F8FA0A200DF0BFFC922F83
:100C3000CDD8114807F068F857E700BF81070000DA
:100C40002C8CFF1FC0B30100B49CFF1FC4B3010074
:100C5000DCB3010010B4010014B401001CB40100A5
:100C600024B401003333333F3CB4010050B40100DD
:100C700060B4010070B401002CB4010010B508226A
:100C8000C549044613F0EAFC002800F03F83C3493D
:100C9000204613F099FA002800F03583C049204619
:100CA00013F092FA002800F04283BE49204613F068
:100CB0008BFA002800F03883BB49204613F084FAF1
:100CC000002800F03783B949204613F07DFA002848
:100CD00000F03683B649204613F076FA002800F07B
:100CE0002C83B449204613F06FFA002800F02B83C0
:100CF000B149204613F068FA002800F02783AF4975
:100D0000204613F061FA002800F02383AC49204606
:100D100013F05AFA002800F01F83AA49204613F066
:100D200053FA002800F01B83A749204613F04CFA21
:100D3000002800F01783A549204613F045FA002843
:100D400000F01383A249204613F03EFA002800F079
:100D50007F83A049204613F037FA002800F07B83F8
:100D60009D49204613F030FA002800F077839B4914
:100D7000204613F029FA002800F07683984920468F
:100D800013F022FA002800F06C839649204613F0F5
:100D90001BFA002800F091839349204613F014FABF
:100DA000002800F085839149204613F00DFA0028B1
:100DB00000F07B838E49204613F006FA002800F0ED
:100DC00071838C49204613F0FFF9002800F0F1846C
:100DD0008949204613F0F8F9002800F0E784874994
:100DE000204613F0F1F9002800F0DD848449204604
:100DF00013F0EAF9002800F0D1848249204613F06C
:100E0000E3F9002800F0C5847F49204613F0DCF99F
:100E1000002800F0B9847D49204613F0D5F9002858
:100E200000F079847A49204613F0CEF9002800F0CA
:100E30006F847849204613F0C7F9002800F06584D4
:100E40007549204613F0C0F9002800F05884734912
:100E5000204613F0B9F9002800F04B847049204671
:100E600013F0B2F9002800F041846E49204613F0D7
:100E7000ABF9002800F037846B49204613F0A4F941
:100E8000002800F02D846949204613F09DF90028C0
:100E900000F023846649204613F096F9002800F0FC
:100EA00017846449204613F08FF9002800F0EE847F
:100EB0006149204613F088F9002800F0E2845F4978
:100EC000204613F081F9002800F0D8845C492046C0
:100ED00013F07AF9002800F0CE845A49204613F026
:100EE00073F9002800F0C4845749204613F06CF9C8
:100EF000002800F0BA845549204613F065F900280F
:100F000000F0B0845249204613F05EF9002800F04A
:100F1000A6845049204613F057F9002800F09C841D
:100F20004D49204613F050F9002800F092844B49B7
:100F3000204613F049F9002800F0888448492046EB
:100F400013F042F9002800F07E844649204613F051
:100F50003BF9002800F074844349204613F034F92B
:100F6000002800F06A844149204613F02DF900283A
:100F700000F060843E49204613F026F9002800F076
:100F800056843C49204613F01FF9002800F04C8499
:100F90003949204672E000BF80B401008CB40100E2
:100FA0009CB40100B8B40100D4B40100E8B401005D
:100FB00040B8010008B5010050B8010014B50100A7
:100FC00060B8010020B501002CB501003CB501005E
:100FD00054B5010064B501007CB501008CB5010079
:100FE000A4B50100B0B50100C4B50100D4B501003D
:100FF000ECB5010000B601001CB6010024B60100EA
:1010000038B6010048B6010058B6010068B60100C4
:1010100080B6010098B60100F4BE0100B0B6010030
:10102000C0B60100C8B60100D8B60100E0B60100A4
:10103000F0B60100F8B6010000B7010008B70100E2
:1010400018B7010028B7010038B7010044B7010004
:1010500050B701005CB7010074B7010088B7010008
:101060009CB70100ACB70100B8B70100C4B70100DC
:10107000DCB70100F0B7010004B8010013F0A4F8D8
:10108000002800F0CE83BA49204613F09DF80028CE
:1010900000F0C483B749204613F096F8002800F00A
:1010A000B983B549204613F08FF8002800F0AE83CD
:1010B000B249204613F088F8002800F0A383B04915
:1010C000204613F081F8002800F09883AD492046AF
:1010D00013F07AF8002800F08D83AB49204613F016
:1010E00073F8002800F08183A849204613F06CF8BB
:1010F000002800F07583A649204613F065F8002803
:1011000000F06983A349204613F05EF8002800F040
:101110005F83A149204613F057F8002800F055835B
:101120009E49204613F050F8002800F04B839C495C
:10113000204613F049F8002800F0418399492046E1
:1011400013F042F8002800F037839749204613F047
:101150003BF8002800F0B9829449204613F034F897
:10116000002800F0AF829249204613F02DF80028A5
:1011700000F0A5828F49204613F026F8002800F0E1
:101180009B828D49204613F01FF8002800F09182C1
:101190000D228A49204613F061FA002800F07F8270
:1011A0000B228749204613F059FA002800F06D827F
:1011B00016228449204613F051FA002800F0578285
:1011C00015228149204613F049FA002800F0418297
:1011D00009227E49204613F041FA002800F02C82B3
:1011E0000B227B49204613F039FA002800F01782C1
:1011F00012227849204613F031FA002800F00282CA
:1012000012227549204613F029FA002800F0EC81DB
:1012100012227249204613F021FA002800F0D781EB
:1012200012226F49204613F019FA002800F0C181FC
:1012300010226C49204613F011FA002800F0AC810E
:1012400012226949204613F009FA002800F096811D
:1012500011226649204613F001FA002800F081812E
:101260001A226349204613F0F9F9002800F06C8136
:101270001A226049204613F0F1F9002800F0578146
:101280001A225D49204613F0E9F9002800F0428156
:1012900019225A49204613F0E1F9002800F02C8168
:1012A00019225749204613F0D9F9002800F0168179
:1012B00019225449204613F0D1F9002800F000818A
:1012C00010225149204613F0C9F9002800F0DC80B3
:1012D00010224E49204613F0C1F9002800F0C780C3
:1012E00010224B49204613F0B9F9D8B904F1100087
:1012F00011F07EFD0A2815D8464B1B688E3003EB93
:101300008000406810BD444B186810BD04F108000F
:1013100011F06EFD862805D83E4BDC301B6853F873
:10132000200010BD3D4810BD3D4B186810BD3D4B21
:10133000186810BD3C4B186810BD3C4B186810BDB8
:101340003B4B186810BD3B4B186810BD3A4B1868F2
:1013500010BD3A4B186810BD394B186810BD394B99
:10136000186810BD384B186810BD384B186810BD90
:1013700008B8010018B8010024B8010034B8010011
:1013800044B8010054B8010064B8010070B801000D
:101390007CB8010088B8010094B80100ACB8010025
:1013A000BCB80100D4B80100E0B80100F4B80100F5
:1013B00000B9010014B9010020B9010034B90100DD
:1013C00044B9010050B9010068B9010080B90100B9
:1013D0008CB9010098B90100ACB90100C0B9010095
:1013E000D4B90100E8B90100FCB9010010BA01004C
:1013F00024BA010040BA01005CBA010078BA0100C9
:1014000094BA0100B0BA0100CCBA0100E0BA010000
:10141000F4BA0100388CFF1F889EFF1F0000C07FB8
:10142000209EFF1F2C9EFF1FB09DFF1FFC9EFF1FD5
:10143000889DFF1F149DFF1F609EFF1F309EFF1F92
:10144000E09CFF1FC49DFF1F9C9EFF1FA89EFF1FC7
:10145000B24B186810BDB24B186810BDB14B18687C
:1014600010BDB14B186810BDB04B186810BD04F129
:10147000100011F0BDFC0A283FF654AFAC4B84308D
:101480001B6853F8200010BD04F1100011F0B0FCEF
:101490000A283FF647AFA64B1B68783003EB800065
:1014A000406810BDA34B186810BDA34B186810BD51
:1014B000A24B186811F072F810BDA14B186810BD4E
:1014C00004F1190011F094FC0A283FF62BAF984B59
:1014D0001B68D03003EB8000406810BD04F1190098
:1014E00011F086FC0A283FF61DAF914B1B68BA30FD
:1014F00003EB8000406810BD04F1190011F078FC86
:101500000A283FF60FAF8A4B1B68A43003EB80001C
:10151000406810BD04F11A0011F06AFC0A283FF679
:1015200001AF834BC6301B6853F8200010BD04F197
:101530001A0011F05DFC0A283FF6F4AE7C4BB03087
:101540001B6853F8200010BD04F11A0011F050FC84
:101550000A283FF6E7AE764B9A301B6853F8200016
:1015600010BD04F1110011F043FC0A283FF6DAAE79
:101570006F4B6E301B6853F8200010BD04F1120051
:1015800011F036FC0A283FF6CDAE694B1B6862307D
:1015900003EB8000406810BD04F1100011F028FC3E
:1015A0000A283FF6BFAE624B58301B6853F8200044
:1015B00010BD04F1110011F01BFC0A283FF6B2AE79
:1015C0005B4B1B684C3003EB8000406810BD04F19E
:1015D000110011F00DFC0A283FF6A4AE544B423026
:1015E0001B6853F8200010BD04F1110011F000FC3D
:1015F0000A283FF697AE4E4B1B68363003EB80004F
:10160000406810BD04F1110011F0F2FB0A283FF60A
:1016100089AE474B2C301B6853F8200010BD04F1F5
:101620000B0011F0E5FB02283FF67CAE404B0E307C
:101630001B6853F8200010BD04F1090011F0D8FB1D
:1016400002283FF66FAE3A4B02301B6853F8200079
:1016500010BD04F1150011F0CBFB03283FF662AE7C
:10166000334B1B68223003EB8000406810BD04F14F
:10167000160011F0BDFB03283FF654AE2C4B1B683F
:101680001E3003EB8000406810BD04F10B0011F028
:10169000AFFB2C4B53F8200010F080FF10BD04F17D
:1016A0000D0011F0A5FB284B53F8200010F076FF39
:1016B00010BD264B186810BD254B186810BD254B72
:1016C000186810BD244B186810BD244B186810BD55
:1016D000234B186810F062FF10BD224B186810BD34
:1016E000214B186810BD214B186810BD204B18689D
:1016F00010BD204BD3E9000110F046FE10BD1E4B7B
:10170000D3E9000110F040FE10BD1C4B186810BD5D
:101710001B4B186810BD1B4B186810BDA09EFF1F07
:10172000749EFF1FA49EFF1F909DFF1F149EFF1F0E
:10173000388CFF1FE09DFF1FA49DFF1F949EFF1F7D
:10174000E49DFF1F389EFF1FCC9EFF1FC89EFF1FFA
:101750001C9EFF1FF89EFF1FC49EFF1F249EFF1F9D
:10176000D09DFF1F8C9DFF1F689EFF1FB89EFF1F0F
:10177000E89CFF1FF89CFF1F089DFF1F9C9DFF1FFB
:10178000189EFF1FC09EFF1F434B186810F006FFF6
:1017900010BD424B186810F001FF10BD404B186897
:1017A00010F0FCFE10BD3F4B186810BD3E4B186892
:1017B00010BD3E4B186810BD3D4B186810BD3D4B29
:1017C000186810BD3C4B186810BD3C4B186810BD24
:1017D0003B4B186810BD3B4B1B68D3F8A40010BDF1
:1017E000384B1B68D3F8A00010BD364B1B68D3F8EC
:1017F0009C0010BD334B1B68986F10BD314B1B68AC
:10180000586F10BD2F4B1B68186F10BD2D4B1B68F8
:10181000D86E10BD2B4B1B68986E10BD2A4B1868F4
:1018200010BD2A4B186810BD294B186810BD294BF4
:10183000186810BD284B186810BD284B186810BDDB
:10184000274B186810BD274B186810BD264B186829
:1018500010BD264B186810BD254B186810BD254BD0
:10186000186810BD244B186810BD244B186810BDB3
:10187000234B186810BD234B186810BD224B186805
:1018800010BD224B186810F089FE10BD204B18685F
:1018900010F084FE10BD00BF6C9EFF1F109DFF1F47
:1018A000A89DFF1F809EFF1F109EFF1FDC9CFF1F37
:1018B0007C9EFF1F949DFF1FD49DFF1F809DFF1FD7
:1018C000D89CFF1F388CFF1FB09EFF1F349EFF1F48
:1018D000BC9EFF1FCC9DFF1FEC9DFF1FAC9DFF1FFB
:1018E000B49DFF1F8C9EFF1FE49CFF1F849DFF1F64
:1018F000C09DFF1FD89DFF1F009DFF1FBC9DFF1FA8
:10190000F09DFF1FDC9DFF1F049EFF1FF49EFF1F25
:10191000289EFF1F2DE9F043DFF8F480D8F80090EF
:1019200009F10106C8F8006099F80040282C8FB032
:1019300062D0A4F12B03DBB20E2B05D847F6ED7273
:1019400022FA03F3DB0724D4204611F097FA00288B
:1019500043D0C8F80090344614F8015B284611F0D3
:1019600083FA05F0FB03074650BB5B2B28D05D2DA7
:1019700026D0C9EB06042246494601A812F0BEFE55
:101980000EAB1C4401A804F8347CFFF777F9044639
:1019900008E04846414614F0DDF810F0F5FCD8F8B0
:1019A00000600446731CC8F800303378184A2A2BAC
:1019B00017D02F2B06D0204616600FB0BDE8F0835D
:1019C0002646C8E7FFF7A6FF0146204610F0EEFEC8
:1019D000044620460FB0BDE8F0835F2CB9D00D4C13
:1019E000E0E7FFF797FF0146204610F02BFE044684
:1019F00020460FB0BDE8F08300F00EF8D8F80030B4
:101A00005E1CC8F800601B78292B0446E7D1C9E7A3
:101A1000B89CFF1F0000C07F10B5FFF77BFF0F4B86
:101A20001A68511C196011782D29044604D02B29FD
:101A30000BD01A60204610BDFFF7EEFF014620468E
:101A400010F0F6FC0446204610BDFFF7E5FF014606
:101A5000204610F0EFFC0446204610BDB89CFF1F46
:101A6000014B1860FFF7D8BFB89CFF1F38B5114D68
:101A70004FF4003000F5006484420ED955F8043C60
:101A8000013306D12B469C4207D953F8042B01326F
:101A9000F9D000211CF094FA30B9B4F57E3F05F579
:101AA00000652046E6D138BD0146034806F08AF9B4
:101AB000F3E700BF0400020008BB01002DE9F0417C
:101AC00000241C6006783A2E84B003D0002004B0B5
:101AD000BDE8F08190460F4606461D4612F050FDC7
:101AE0000A2803D8204604B0BDE8F08101AA28499D
:101AF000701C12F0C5FA0028E8D0304612F040FD04
:101B0000019B5B000B339842E0D342462149F01C15
:101B100012F0B6FA0028D9D00A9A1D49F01D12F029
:101B2000AFFA0028D2D00A9BDDF804E01A78D8F882
:101B300000102B6852FA8EF252FA81F2C1F307219B
:101B40000936541810E012F09BFA02360028BDD076
:101B50002B68039AFA542B68FA5C0133FF2B144468
:101B60002B60B3D8DDF804E00949734503AA304679
:101B7000E9D1304602AA064912F082FA0028A5D01F
:101B8000029B2344DCB2B4FA84F040099FE700BF13
:101B900020BB010028BB01002DE9F04F02234FF4C8
:101BA0008072DBB09149924806F00CF9FFF75EFFB6
:101BB000904A914B9A4217D9904A9A4214D9904A26
:101BC0009A4211D94FF4003300E09BB11C4653F800
:101BD00004290132F9D0211D8A4806F0F3F8B4F542
:101BE000FC3F0BDD884800E0884806F0EBF85BB06E
:101BF000BDE8F08F0421834806F0E4F88448854F5F
:101C0000854DDFF848A2DFF828B206F0DBF88348FC
:101C100006F0D8F8002406AE06F01EF80028FBD027
:101C200005F0EAFF0A285AAB06D00D2804D0234459
:101C3000013403F8C80CEFE71C44002304F8C83C47
:101C40009DF8A0303A2B01D00024E5E73B68002B3B
:101C5000FAD107AA724928A812F012FA012819D15C
:101C600007992A68914240F0AD806E4B1B68002BAB
:101C700000F0A8806C4BDAF8002019686B4806F079
:101C8000A1F864200CF092FC674BDAF80010186899
:101C90001CF09AF92B680096591C296005AB644A20
:101CA00008A928A8FFF70AFF002800F09880614BD8
:101CB000059A1B6803931946DBF800300B4498180B
:101CC000B0F5FC3F00F28680316804295ED8DFE879
:101CD00001F036100A5D0300BDF820305BBA1B042A
:101CE000544A1360B0E7BDF820305BBA9BB21B01C9
:101CF000F6E74FF47A700CF059FC4B4A29681268E9
:101D0000DAF8003000914C4806F05CF8464ADAF800
:101D10000030146803F5FF3808F5FA7804F500344C
:101D200007E020460C22314912F098FC01340028CB
:101D300045D04445F5D3414806F044F884E703F51F
:101D40000034A10742D1910740D1002A2CDD531E57
:101D500023F0030304F1040999440DF1200801E084
:101D6000A1451AD0204658F8041B1CF031F9043460
:101D70000028F5D00146324806F024F82C4B05998E
:101D80001A68304806F01EF8042304E028AA2E48FA
:101D900006F018F803233B6056E7254B039A1B68AF
:101DA00005981A4413461044DAF800202749904257
:101DB00000D908601C4A11688B4292D344E7012382
:101DC000184A8EE7224805F0FDFF3DE7214805F05F
:101DD000F9FFD3E7204805F0F5FF0223DBE728A948
:101DE0001E4805F0EFFF0123D5E700BF30BB01001F
:101DF00040BB01002189FF1FFFFF0300D589FF1FA2
:101E0000558AFF1F7CBB010094BB010064BB01002D
:101E1000ACBB0100C09CFF1FCC9CFF1FD0BB0100CE
:101E2000F0BB0100D09CFF1F308CFF1FFCBB0100EA
:101E3000C49CFF1FC89CFF1F64BC0100F8BC0100CC
:101E4000DCBC010018BD0100A4BC0100BC9CFF1F4C
:101E500014BC0100C0BC010050BC01003CBC01002E
:101E600010B504460EF0C4FB204610BD134A13689B
:101E7000FBB9F0B4124B13481978134B405C1C8823
:101E800072B6124951F8305001264FF4A07385F80C
:101E90008060013BFDD10E4D402710262F6063016D
:101EA0002E603CB951F83010012381F80031F0BCAC
:101EB00013607047013BFDD1F4E700BFC89DFF1FD1
:101EC000A09DFF1F40D40100789EFF1FB0D80100E5
:101ED000C8F00F4038B5057815B944F2AD3038BDBB
:101EE000447824B944F2AE3000FB05F038BD02302E
:101EF000FFF7F0FF00FB04400130F5E72DE9F84F54
:101F00001F4CDFF890A0DFF89080DFF890901D4F15
:101F10001D4D8346204608F065FBCAF800002046A8
:101F200008F086FBC8F80000204608F0CDFB1749F2
:101F300010F03CFC164B06461E60584610F02EFB77
:101F400004460146DAF8000010F030FCD9F8001021
:101F500010F070FA2146C9F80000D8F8000010F01F
:101F600025FC396810F066FA21463860304610F0DA
:101F70001DFC296810F05EFA2860BDE8F88F00BFEC
:101F8000189DFF1F849DFF1FE49CFF1F0000C84297
:101F9000D89DFF1FBC9DFF1F009DFF1FC09DFF1F01
:101FA0002DE9F84F1F4CDFF890A0DFF89080DFF8A4
:101FB00090901D4F1D4D8346204608F013FBCAF834
:101FC0000000204608F034FBC8F80000204608F066
:101FD0007BFB174910F0EAFB164B06461E6058467D
:101FE00010F0DCFA04460146DAF8000010F0DEFBDF
:101FF000D9F8001010F01EFA2146C9F80000D8F8F0
:10200000000010F0D3FB396810F014FA2146386054
:10201000304610F0CBFB296810F00CFA2860BDE8C0
:10202000F88F00BF4C9DFF1FCC9DFF1FBC9EFF1F64
:102030000000C842AC9DFF1F8C9EFF1FB49DFF1F78
:10204000EC9DFF1F2DE9F04F91B08CB2009010462F
:102050001E460D4610F0A2FA21461A9CDFF844A154
:10206000DFF84491DFF84481FEF7FAFB0146284689
:10207000FEF76AFAFEF7A8FA701E002107F020FCAE
:102080000A200CF093FA404A4FEA441B575D402364
:102090000DF10A054FF6FF7401264FF4FA42013A9A
:1020A000FDD172B65AF837104FF4A07281F88060F3
:1020B000013AFDD110224021C9F80010C9F80020D2
:1020C000BBF1000F02D05A46013AFDD15AF8372031
:1020D000032C82F8006149D962B60134A4B21022FF
:1020E000042CC8F8002005F10205C8F80030D4D14E
:1020F0001B9B012B22D01B9B022B2BD01B9B032B4A
:1021000002D011B0BDE8F08F21464FF07C5203A8F9
:1021100006F070F810F03EFA1C4C1D4B0546009876
:102120001D6010F03BFA0146284610F03FFB216885
:1021300010F080F9206011B0BDE8F08F21464FF01B
:102140007C5203A806F056F810F024FA114C124BFA
:102150000546E4E721464FF07C5203A806F04AF812
:1021600010F018FA0D4C0E4B0546D8E706A81321BF
:10217000019307F00DFD06A84FF07C52132106F0E5
:1021800039F8019B2880A7E740D40100149EFF1F67
:10219000A49EFF1FA89EFF1F9C9EFF1F749EFF1FF3
:1021A000A09EFF1FB0D80100C8F00F40C4F00F4040
:1021B00070B50646002008F063FC0446002008F0D5
:1021C0005FFC0146204610F035F90446002008F077
:1021D00057FC0146204610F02DF90A490A4D10F02F
:1021E000E5FA0A4B04461C60304610F0D7F9014668
:1021F000204610F0DBFA296810F01CF92860204610
:1022000070BD00BF00004040DC9CFF1FE09DFF1F31
:102210002DE9F04F95B0074605AA03A8894604A901
:1022200009F04EFA08AA07A906A808F0D5FC0398F9
:102230006B4C6C4D6C4EDFF8EC8110F0AFF90990EF
:10224000049810F0ABF90A90059810F0A7F90B90DC
:1022500009A806F0DDFC06A90EC90CA80D920E9384
:102260000C9106F04FFD0E990D9806F065FD20606B
:102270000CA807C8234606F005FFDDF824E00B9AFA
:102280000A9900942B462860704606F08DFE2A6855
:102290002168306003460FA806F024FF3246294625
:1022A000204606F033FD0F980FF022FDC8E900012B
:1022B00010A94E480EF0BAFA002F54D1484610F03B
:1022C0006DF94B4B4B4E4C4DDFF85C814B4F044648
:1022D000186810F063F9214610F068FA316810F0C0
:1022E000A9F8474B30601868464E10F057F9214660
:1022F00010F05CFA296810F09DF8434B28601868CC
:10230000424D10F04BF9214610F050FAD8F8001069
:1023100010F090F83E4BC8F80000186810F03EF935
:10232000214610F043FA396810F084F8394B3860D0
:10233000186810F033F9214610F038FA316810F0BF
:1023400079F8354B3060186810F028F9214610F004
:102350002DFA296810F06EF8286010A80EF0F4F934
:1023600015B0BDE8F08F012FF7D1484610F016F9EF
:10237000DFF8B8B0DFF8B8A0074639462068274C28
:1023800010F014FADBF8001010F054F83946CBF8CE
:1023900000002868224D10F009FADAF8001010F059
:1023A00049F83946CAF80000306810F0FFF929688A
:1023B00010F040F8286048460FF088FC02460B46B3
:1023C000D8E900010FF012FED4E900230FF032FB30
:1023D000C4E9000110A80EF0B7F915B0BDE8F08F00
:1023E000689EFF1FE89CFF1F109EFF1FF49DFF1FAC
:1023F000D09DFF1F049EFF1FDC9DFF1FC09EFF1F7F
:10240000289EFF1F189EFF1FF49EFF1F9C9DFF1F0D
:10241000A89DFF1F109DFF1F6C9EFF1FF89CFF1FB4
:10242000809EFF1F089DFF1FF09DFF1F8C9DFF1FBB
:10243000B89EFF1F2DE9F843074688464FF47A748B
:10244000002523200BF064FC013C0544F9D12B4905
:102450002B4B2C4A0E6883FB0513ED17C5EBA3131A
:102460001846136010F09AF8D6F89C5004460146BE
:10247000284610F0E7F8214610F0E4F82249D6F893
:10248000A090D6F8A45010F091F94946064620468F
:1024900010F0D8F8014630460FF0CCFF29460FF077
:1024A000C9FF1A4910F082F9194B05461860AFB1FF
:1024B000012F03D000242046BDE8F883404610F0E9
:1024C0006DF8144E0146284610F070F931680FF08F
:1024D000B1FF2C4630602046BDE8F883404610F03E
:1024E0005DF80D4D0146204610F060F929680FF0A7
:1024F000A1FF28602046BDE8F88300BF388CFF1F8D
:10250000D34D6210949EFF1F286B6E4E00007A44DC
:10251000909DFF1FE49DFF1FA49DFF1FF8B50F4670
:10252000C6B24FF47A74002530460BF0F1FB013C43
:102530000544F9D10C480D4E80FB0530ED17C5EB75
:10254000A01010F02BF80A4B04461C60384610F01F
:1025500025F80146204610F029F931680FF06AFF8E
:1025600030602046F8BD00BFD34D6210809DFF1F34
:10257000D89CFF1F70B506464FF4FA6007F036F995
:1025800010F008F8094C0A4D206064200CF00EF899
:10259000304610F003F824680146204610F006F992
:1025A00029680FF047FF2860204670BD349EFF1F4A
:1025B000B09EFF1F70B5C0B20E460BF0C1FF0FF00A
:1025C000E9FF094B094C1860054630460FF0E6FF5D
:1025D0000146284610F0EAF821680FF02BFF044B63
:1025E0002060186870BD00BFD49DFF1F949DFF1F21
:1025F000D89CFF1F70B503300E4607F0B5FA0FF0F8
:10260000C9FF084B084D1860044630460FF0C6FF5E
:102610000146204610F0CAF829680FF00BFF286029
:10262000204670BD7C9EFF1F249EFF1F70B50330A7
:102630000E4607F099FA0FF0ADFF084B084D1860F1
:10264000044630460FF0AAFF0146204610F0AEF8CF
:1026500029680FF0EFFE2860204670BDC49EFF1F62
:10266000F89EFF1F70B503300E4607F07DFA0FF09D
:1026700091FF084B084D1860044630460FF08EFF5E
:102680000146204610F092F829680FF0D3FE28602A
:10269000204670BD1C9EFF1FC89EFF1F2DE9F04FF6
:1026A000A7B00EAE86E8030015461F4600240AE0D8
:1026B0002846FFF723FC6B1EBB4200F0998011A84F
:1026C0000EF042F801340F9B03B1DB689C4280F2AC
:1026D0000081224615A8314608F01CF9002115A8F2
:1026E00008F036F9014611A80EF06EF811A8A349BA
:1026F0000EF004F90028DBD1A14911A80EF0FEF874
:1027000000B32846FFF74CFC6B1E9F42D7D1309B8D
:10271000002BD4D19B4B18680FF0EAFA9A4B8046F5
:10272000186889460FF0E4FACDE90201974B186862
:102730000FF0DEFA4246CDE900014B46944805F021
:1027400041FBBCE7934911A80EF0D8F800286BD0E4
:102750002846FEF709F96B1E9F42B0D1309B002B33
:10276000ADD18D4B8D4A8E491868DFF890828D4B24
:1027700009681060DFF85C928B4ADFF884E2D8F8D1
:1027800000801960894BDFF87CC2D9F80090C2F84C
:102790000080874ADEF800B0C3F800908549864B78
:1027A000DCF800A0C2F800B0309A1A60C1F800A0AE
:1027B0000FF09EFA02460B465846CDE90A230FF069
:1027C00097FACDE9060150460FF092FACDE90401DF
:1027D00048460FF08DFACDE9020140460FF088FA25
:1027E000DDE90A23CDE90001744805F0EBFA66E75C
:1027F000309B002B7FF463AF714B18680FF078FAB1
:10280000704B8046186889460FF072FACDE90201D4
:102810006D4B18680FF06CFA4246CDE900014B464B
:102820006A4805F0CFFA4AE7694911A80EF066F840
:10283000002851D0594BDFF86CE1DFF85CC15849F2
:102840001868DEF800E0DFF86091DFF86081C1F819
:1028500000E0CCF800005F49DFF8A0C1554BD9F883
:1028600000A0D8F800B0DFF89CE1514A1B68CCF812
:1028700000A0C1F800B0DFF888C14F491268CEF857
:1028800000304FF0010ECCF80020C1F800E00D93AD
:102890000A920FF02DFA0A9A8046104689460FF0E8
:1028A00027FA0D9BCDE9060118460FF021FACDE974
:1028B000040158460FF01CFACDE9020150460FF012
:1028C00017FA4246CDE900014B463C4805F07AFA3A
:1028D000F5E627B0BDE8F08F3F4911A80EF00EF8DD
:1028E000A0B12846FFF764FC6B1E9F427FF4E7AE61
:1028F000309B002B7FF4E3AE384B18680FF0F8F9EB
:1029000002460B46364805F05DFAD8E6354911A86F
:102910000DF0F4FF8046D8B9334911A80DF0EEFF51
:10292000002871D040462946FFF784FD6B1E9F4268
:102930007FF4C5AE309B002B7FF4C1AE2B4B1868E3
:102940000FF0D6F902460B46294805F03BFAB6E6E9
:1029500029460120FFF76EFD6B1E9F427FF4AFAE4C
:10296000309B002B7FF4ABAE224B18680FF0C0F900
:1029700002460B46204805F025FAA0E6ACBD010052
:10298000FCBD0100EC9DFF1FBC9EFF1FCC9DFF1FE7
:102990001CBE01008CB40100209EFF1FEC9CFF1F99
:1029A000889EFF1F2C9EFF1FB89DFF1F909EFF1F3C
:1029B000709EFF1F649EFF1FB49EFF1F50BE01004C
:1029C000C09DFF1FE49CFF1F849DFF1FCCBD010025
:1029D0009CB40100309EFF1FECB50100DC9CFF1F82
:1029E000A0BE0100A4B50100C4B50100A49DFF1F55
:1029F000D0BE0100E49DFF1FBCBE0100149DFF1F5F
:102A0000889DFF1FC49DFF1FBC4911A80DF076FFD4
:102A100000283BD1BA4911A80DF070FF00286BD0F7
:102A200029460020FFF7F4FB6B1E9F427FF447AE60
:102A3000309B002B7FF443AEB24B18680FF058F96F
:102A4000B14B8046186889460FF052F9CDE908016C
:102A5000AE4B18680FF04CF9CDE90601AC4B186885
:102A60000FF046F9CDE90401AA4B18680FF040F9C0
:102A7000CDE90201A84B18680FF03AF94246CDE9BA
:102A800000014B46A54805F09DF918E629460120AE
:102A9000FFF7BEFB6B1E9F427FF411AE309B002BF5
:102AA0007FF40DAEDFF8C082D8F8000006F056F9CA
:102AB00006F080F98246D8F800000FF019F9984B1B
:102AC0008046186889460FF013F9CDE90601954B49
:102AD00018680FF00DF9944B944A1B680293D2E9E1
:102AE0000023CDE90401CDE90023514642464B467F
:102AF0008F4805F067F9E2E58E4911A80DF0FEFE5A
:102B0000002843D02246314615A807F003FF0121D3
:102B100015A807F013FF22468046314615A807F096
:102B2000F9FE022115A807F009FF22468146314629
:102B300015A807F0EFFE032115A807F0FFFE2246B7
:102B40008246314615A807F0E5FE042115A807F0D6
:102B5000F5FE4FF0010E009053464A464146CDF82F
:102B600004E02846FFF76EFA6B1E9F427FF4A7AD84
:102B7000309B002B7FF4A3AD6F4B18680FF0B8F8B3
:102B800002460B466D4805F01DF998E56C4911A801
:102B90000DF0B4FE002843D02246314615A807F0B8
:102BA000B9FE012115A807F0C9FE2246804631462C
:102BB00015A807F0AFFE022115A807F0BFFE2246B8
:102BC0008146314615A807F0A5FE032115A807F098
:102BD000B5FE22468246314615A807F09BFE042129
:102BE00015A807F0ABFE4FF0020E009053464A4680
:102BF0004146CDF804E02846FFF724FA6B1E9F42B9
:102C00007FF45DAD309B002B7FF459AD4D4B1868C0
:102C10000FF06EF802460B464B4805F0D3F84EE530
:102C20004A4911A80DF06AFE002843D022463146D9
:102C300015A807F06FFE012115A807F07FFE2246B8
:102C40008046314615A807F065FE022115A807F059
:102C500075FE22468146314615A807F05BFE03212A
:102C600015A807F06BFE22468246314615A807F0EC
:102C700051FE042115A807F061FE4FF0030E0090ED
:102C800053464A464146CDF804E02846FFF7DAF9B4
:102C90006B1E9F427FF413AD309B002B7FF40FAD72
:102CA0002B4B18680FF024F802460B46294805F014
:102CB00089F804E5284911A80DF020FE58B12246F4
:102CC000314615A807F026FE15A8012107F036FEAB
:102CD000224B1860F3E4224911A80DF00FFE0028E2
:102CE00044D02246314615A807F014FE15A801214C
:102CF00007F024FE1B4B1860E1E400BFE8BE0100B2
:102D000060BF0100049EFF1F9C9DFF1F189EFF1FB8
:102D1000C09EFF1FF09DFF1FDC9DFF1F78BF0100BD
:102D20008C9DFF1FB89EFF1FF49DFF1FF89CFF1F87
:102D3000FCBE01002CB50100A89EFF1FE4BF0100EE
:102D400054B50100749EFF1FFCBF01007CB501005B
:102D5000149EFF1F14C001002CC00100E89DFF1F3E
:102D600044C00100849EFF1F809EFF1FA74911A839
:102D70000DF0C4FDE8B12246314615A807F0CAFDA2
:102D8000012115A807F0DAFD2946FFF7C7FB6B1EE6
:102D90009F427FF494AC309B002B7FF490AC9C4B13
:102DA00018680EF0A5FF02460B469A4805F00AF88F
:102DB00085E4994911A80DF0A1FDE8B122463146FC
:102DC00015A807F0A7FD012115A807F0B7FD2946B2
:102DD000FFF7F0FB6B1E9F427FF471AC309B002B22
:102DE0007FF46DAC8D4B18680EF082FF02460B46E7
:102DF0008B4804F0E7FF62E48A4911A80DF07EFDDC
:102E0000A0B12846FFF7B6FB6B1E9F427FF457AC7C
:102E1000309B002B7FF453AC834B18680EF068FF97
:102E200002460B46814804F0CDFF48E4804911A8D2
:102E30000DF064FDE8B12246314615A807F06AFDA1
:102E4000012115A807F07AFD2946FFF7D3FB6B1E79
:102E50009F427FF434AC309B002B7FF430AC754B39
:102E600018680EF045FF02460B46734804F0AAFFAF
:102E700025E4724911A80DF041FDE8B12246314622
:102E800015A807F047FD012115A807F057FD2946B1
:102E9000FFF7CCFB6B1E9F427FF411AC309B002BE5
:102EA0007FF40DAC664B18680EF022FF02460B460D
:102EB000644804F087FF02E4634911A80DF01EFD89
:102EC000F0B12246314615A807F024FD012115A8CE
:102ED00007F034FD2946FFF7C5FB6B1E9F427FF4C8
:102EE000EEAB309B002B7FF4EAAB584B18680EF02A
:102EF000FFFE02460B46564804F064FFFFF7DFBBB7
:102F0000544911A80DF0FAFC814640B322463146DF
:102F100015A807F0FFFC012115A807F00FFD2246B8
:102F20008046314615A807F0F5FC022115A807F0E8
:102F300005FD5FFA88F8814604F0B4FE40460121A1
:102F40000BF00CFB444B53F83830012219F0FF0F03
:102F500014BF83F8802083F80021FFF7B0BB3F49FE
:102F600011A80DF0CBFC00283FF4A9AB2246314656
:102F700015A807F0CFFC012115A807F0DFFC2246B9
:102F80003146804615A807F0C5FC022115A807F0B8
:102F9000D5FC22460A90314615A807F0BBFC032158
:102FA00015A807F0CBFC22468246314615A807F04B
:102FB000B1FC042115A807F0C1FC5FFA88F883462C
:102FC000442215A826490AF067FC404601210BF06F
:102FD000C5FA26AB03EB8A02404652F8441C0BF0BC
:102FE00027FA50460BF016FA0A9B404619460BF09A
:102FF00013F958460BF0DAFA404649460BF00CF943
:103000000C200BF007FAFFF75ABB00BF88B801008D
:10301000809DFF1F4CC00100ACB80100949DFF1FB4
:1030200060C0010004B80100B09EFF1F74C0010021
:10303000D4B80100249EFF1F80C00100F4B8010035
:10304000F89EFF1F90C0010014B90100C89EFF1F29
:10305000A0C00100B0C00100B0D80100C0C0010094
:1030600038BD01002DE9F04FB24CB34825682968FE
:103070002A682B682D6895B0EDB2C2F30742090E9D
:103080000095C3F3072304F09DFE23689868DD686C
:10309000D3F810800EF02CFE064640460F460EF088
:1030A00027FECDE9020128460EF022FE32463B46BD
:1030B000CDE90001A14804F085FE236858699D69A7
:1030C000DE691F6AD3F82480D3F82890D3F82CA0A7
:1030D000D3F830B05B6B11930EF00AFE02460B463C
:1030E0001198CDE912230EF003FECDE90E015846EA
:1030F0000EF0FEFDCDE90C0150460EF0F9FDCDE9D4
:103100000A0148460EF0F4FDCDE9080140460EF0F4
:10311000EFFDCDE9060138460EF0EAFDCDE90401E8
:1031200030460EF0E5FDCDE9020128460EF0E0FD47
:10313000DDE91223CDE90001814804F043FE236854
:10314000986BDD6BD3F840800EF0D2FD064640460A
:103150000F460EF0CDFDCDE9020128460EF0C8FD68
:1031600032463B46CDE90001764804F02BFE236849
:10317000586C9D6CDE6C1F6DD3F85480D3F858905A
:10318000D3F85CA0D3F860B05B6E11930EF0B0FD85
:1031900002460B461198CDE912230EF0A9FDCDE9A8
:1031A0000E0158460EF0A4FDCDE90C0150460EF07C
:1031B0009FFDCDE90A0148460EF09AFDCDE90801D0
:1031C00040460EF095FDCDE9060138460EF090FD23
:1031D000CDE9040130460EF08BFDCDE90201284611
:1031E0000EF086FDDDE91223CDE90001564804F01A
:1031F000E9FD2368D86E0EF07BFD02460B4653486E
:1032000004F0E0FD2368186F0EF072FD02460B46D5
:103210004F4804F0D7FD2368586F0EF069FD024651
:103220000B464C4804F0CEFD2368986F0EF060FD0D
:1032300002460B46484804F0C5FD2368986E0EF020
:1032400057FD02460B46454804F0BCFD2368D86F85
:10325000D3F88050D3F88480D3F888900EF048FDDE
:10326000064648460F460EF043FDCDE904014046B0
:103270000EF03EFDCDE9020128460EF039FD324642
:103280003B46CDE90001364804F09CFD2368D3F8A5
:103290008C00D3F89050D3F89480D3F898900EF027
:1032A00027FD064648460F460EF022FDCDE90401F3
:1032B00040460EF01DFDCDE9020128460EF018FD36
:1032C0003246CDE900013B46264804F07BFD2368E9
:1032D000D3F89C000EF00CFD02460B46224804F089
:1032E00071FD2368D3F8A0000EF002FD02460B46E4
:1032F0001E4804F067FD2368D3F8A4000EF0F8FC24
:1033000002460B461A4804F05DFD2368D3F8A80076
:103310000EF0EEFC02460B46164804F053FD2368FF
:10332000D3F8AC000EF0E4FC02460B46124804F061
:1033300049FD23E0388CFF1FD0C00100FCC0010014
:103340001CC1010060C1010084C10100C8C10100AD
:10335000E4C10100FCC1010014C201002CC2010043
:1033600044C2010078C20100A8C20100C0C201002D
:10337000D8C20100F0C2010008C30100CB4804F02C
:10338000C3FC00252368CA4E05F12C02013553F811
:1033900022000EF0ADFC02460B46C64804F012FDBA
:1033A0000A2DEFD13368D3F8D8000EF0A1FC024605
:1033B0000B46C14804F006FDC04804F0A5FC0025FA
:1033C0002368BB4E05F1360203EB820301355868D2
:1033D0000EF08EFC02460B46B64804F0F3FC0A2DB4
:1033E000EED13368D3F804010EF082FC02460B469E
:1033F000B14804F0E7FCB24804F086FC00252368DD
:10340000AB4E05F14202013553F822000EF070FC7C
:1034100002460B46A74804F0D5FC0A2DEFD13368CD
:10342000D3F830010EF064FC02460B46A24804F0CB
:10343000C9FCA44804F068FC002523689C4E05F1F3
:103440004C0203EB8203013558680EF051FC024632
:103450000B46984804F0B6FC0A2DEED13368D3F839
:103460005C010EF045FC02460B46934804F0AAFCB2
:10347000954804F049FC002523688D4E05F158025B
:10348000013553F822000EF033FC02460B46894802
:1034900004F098FC0A2DEFD13368D3F888010EF0C0
:1034A00027FC02460B46844804F08CFC874804F055
:1034B0002BFC002523687E4E05F1620203EB82039C
:1034C000013558680EF014FC02460B46794804F0AA
:1034D00079FC0A2DEED13368D3F8B4010EF008FC64
:1034E00002460B46744804F06DFC794804F00CFC6D
:1034F000002523686E4E05F16E02013553F8220057
:103500000EF0F6FB02460B466A4804F05BFC0A2DFF
:10351000EFD13368D3F8E0010EF0EAFB02460B4628
:10352000654804F04FFC6B4804F0EEFB002523686F
:103530005F4E05F19A02013553F822000EF0D8FBD8
:1035400002460B465B4804F03DFC0A2DEFD1336880
:10355000D3F890020EF0CCFB02460B46564804F01E
:1035600031FC5D4804F0D0FB00252368504E05F186
:10357000A40203EB8203013558680EF0B9FB024642
:103580000B464C4804F01EFC0A2DEED13368D3F8EC
:10359000BC020EF0ADFB02460B46474804F012FC9D
:1035A0004E4804F0B1FB00252368414E05F1B002FE
:1035B000013553F822000EF09BFB02460B463D48B6
:1035C00004F000FC0A2DEFD13368D3F8E8020EF0C6
:1035D0008FFB02460B46384804F0F4FB404804F0E9
:1035E00093FB00252368324E05F1BA0203EB8203F8
:1035F000013558680EF07CFB02460B462D4804F05E
:10360000E1FB0A2DEED13368D3F814030EF070FB02
:1036100002460B46284804F0D5FB324804F074FB00
:1036200000252368224E05F1C602013553F8220019
:103630000EF05EFB02460B461E4804F0C3FB0A2D4B
:10364000EFD13368D3F840030EF052FB02460B462D
:10365000194804F0B7FB244804F056FB0025236802
:10366000134E05F1D00203EB8203013558680EF0CA
:103670003FFB02460B460F4804F0A4FB0A2DEED197
:103680003368D3F86C030EF033FB02460B460A484E
:1036900004F098FB154804F037FB00252368044E1E
:1036A00005F1780203EB8203013521E020C301001C
:1036B000388CFF1F38C30100A0C2010040C30100C5
:1036C00058C3010070C3010088C30100A0C30100FA
:1036D000B8C30100D0C30100F0C3010010C4010051
:1036E00030C4010050C4010070C4010090C4010046
:1036F00058680EF0FDFA02460B46374804F062FBAC
:103700000A2DCBD13368D3F80C020EF0F1FA024641
:103710000B46324804F056FB314804F0F5FA002518
:103720002368304E05F18402013553F822000EF073
:10373000DFFA02460B46284804F044FB0A2DEFD17D
:103740003368D3F838020EF0D3FA02460B4623480A
:1037500004F038FB244804F0D7FA00252368214EF2
:1037600005F18E0203EB8203013558680EF0C0FAB2
:1037700002460B46184804F025FB0A2DEED13368AB
:10378000D3F864020EF0B4FA02460B46134804F074
:1037900019FB00252368134E05F1DC0253F82200C3
:1037A0000EF0A6FA02460B4610482946013504F0F1
:1037B00009FB862DEED13368D3F888050EF098FA10
:1037C00002460B460A48294604F0FCFA15B0BDE84B
:1037D000F04F04F083BB00BF38C30100A0C201005A
:1037E000A8C40100388CFF1FC0C40100D8C4010068
:1037F000ECC4010070B50D4604464949284610F056
:10380000E3FC002863D0474E2846314610F0DCFC2C
:10381000002857D0444E2846314610F0D5FC0028E9
:1038200050D0424E2846314610F0CEFC002849D0F8
:103830003F4E2846314610F0C7FC002842D03D4E8E
:103840002846314610F0C0FC00283BD03A492846B3
:1038500010F0BAFC002844D0384E2846314610F00B
:10386000B3FC78B3364E2846314610F0ADFC002844
:103870003BD03449284610F0A7FC002841D03249FB
:10388000284610F0A1FC002842D0304E2846314690
:1038900010F09AFCB0B12E4E2846314610F094FC40
:1038A00080B12C4E2846314610F08EFC50B12A4E85
:1038B0002846314610F088FC20B1284B23600123B4
:1038C000636102E0012326606361204670BD244BE2
:1038D0002449254A236003236160A2606361204676
:1038E00070BD224B2249234AF4E7234D2348244943
:1038F000244A266005236560A060E160226163615F
:10390000E3E7104B204A2360022362606361DCE737
:103910001E4B1F4A2360022362606361D5E700BF2C
:10392000ACBD010088B80100D4B80100F4B80100B2
:1039300014B9010004B80100FCBD0100ECB50100A0
:103940008CB40100A4B50100E8BE0100ACB80100D0
:103950002CB5010054B501007CB5010000C5010083
:1039600038B7010044B7010050B701009CB701000F
:10397000ACB70100B8B70100D4B4010040B80100F1
:1039800050B8010060B80100C4B501001CB60100C8
:10399000F4BE01002DE9F04FADF5B44D91B006AF86
:1039A000854907F5C8700CF00FFF844B00241C609C
:1039B000834B2146282207F5E8701C600FF0E6FDD6
:1039C0002146282207F5FC700FF0E0FD214607F59F
:1039D000087028220FF0DAFD07F538752C4607F538
:1039E00074762046002110340CF0EEFEB442F8D17B
:1039F0002846714910350CF021FFAE42F8D107F28C
:103A0000FC4442F228334FF4FA726E49204604F027
:103A10007FFA204604F006FC054600287BD06A4960
:103A2000204611F00DF8694B0646002800F09580FD
:103A30001A46BB62664901232046136011F000F864
:103A4000002800F0848000F1090845450ED9437A2A
:103A50003A2B18BF00F10A0208D0AA42904602F1A0
:103A6000010203D098F800303A2BF6D198F80130D3
:103A70005149222B08F1010407F5C87008BF08F16D
:103A800002040CF0DBFEAC421CD221782C2919D0A8
:103A900001F0DF035D2B15D0222918BF04F10109C5
:103AA00010D007F5C8700CF019FF4D454C4609D0F1
:103AB00019F8011B2C2901F0DF0303D05D2B01D085
:103AC0002229EED1C8EB0403013B122B3CD8B542AE
:103AD0000CD933785B2B18BF731C07D09D421E4650
:103AE00003F1010302D032785B2AF7D1751C284616
:103AF00004F0E2FB0446304804F006F9B44258D919
:103B00000023984631787B2901F03F86AC422E464F
:103B10004CD90135F6E72F4804F0F6F807F54A735B
:103B200007F57074A3F158052046103C0CF00CFE0C
:103B3000A542F9D107F5C8700CF006FE07F5B447A9
:103B40002C37BD46BDE8F08F234804F0DDF81A4954
:103B500007F5C8700CF072FEB9E7A542BB621860A9
:103B600027D921787B2911D00134A542F9D83E66A6
:103B700004F090FA012004F04DFC88B3174804F0DB
:103B8000C3F804F0ABF904F033F9C7E707F538736D
:103B900003EB061840460CF0A1FE14F8011F7D2926
:103BA000F8D140460CF09AFE0136DDE7C7F8608098
:103BB000DEE700233B66DBE7C0D30100849EFF1FE6
:103BC000E89DFF1F10C5010050C50100989EFF1F12
:103BD00060C5010014C501006CC5010084C5010069
:103BE00004F080FB0EF0DAFCCC490EF021FCCC494D
:103BF0000EF0DCFDCB490EF025FDCB4BCB4A1B680C
:103C00001E681C681D68D3F8008004920EF0E0FE68
:103C1000360E5FFA88F2C5F30725C4F3074433462E
:103C200003900292C249C34AC3488DE8300004F0B1
:103C3000C9F8C24804F068F8BB6A1B68012B0FD1B1
:103C4000BF4804F061F8BF4804F05EF8D7F890016F
:103C500004F05AF8BC4804F057F8BC4804F054F893
:103C6000BB4B1021402219600A201A600AF09EFC0A
:103C700000233B65C7F8A030BB631C460123BB642F
:103C80003B6E002B01F066850023FB66FB6EC7F8D8
:103C900010D01B0107F53872D518D158AC6804F163
:103CA000080323F00703ADEB030D0DF11808002600
:103CB00022464046C7F8C860C7F8CC6010F01EFD29
:103CC000A44908F8046028460CF0B8FD07F57470A4
:103CD00007F096FC07F52052283241464FF448730E
:103CE00007F5747007F086FA07F52053B04203F128
:103CF000280308BF1A46414618BF324607F5BC7074
:103D000006F030FE07F5BC7393E8030007F1C80323
:103D100083E80300002801F0DB84002901F0D88447
:103D2000BB6BFB623B6EFE65013BBB6107F5127A24
:103D3000894A07F1C80107F1D00006F04BFE874A17
:103D400007F1C80107F1D80006F044FE844A07F1E4
:103D5000C80107F1E00006F03DFE824A07F1C80104
:103D600007F1E80006F036FE7F4907F1C80006F0CB
:103D700041FE7E4983B207F1C8007B6706F03AFE38
:103D80007B4A83B207F1C80107F1F000C7F8903011
:103D900006F020FEBB6AC7F80CD01B684BB975490A
:103DA00007F1C80006F030FE014607F5C8700CF0B8
:103DB00045FD714907F1C80006F01CFE6F4907F187
:103DC000C80006F017FE0346002808BF01236C490F
:103DD000C7F8803007F1C80006F00CFE6949B860EA
:103DE00007F1C80006F006FE6749B86407F1C8008D
:103DF00006F000FE6549786007F1C80006F0FAFD9C
:103E00000346002808BF012361497B6407F1C8000D
:103E100006F0F0FD5F49386007F1C80006F0EAFDE2
:103E2000002841F0AD83B8635B4A07F1C80107F190
:103E3000F80006F0CFFD594A07F1C80107F5807078
:103E400006F0C8FD564A07F1C80107F5847006F070
:103E5000C1FD544A07F1C80107F5887006F0BAFDA4
:103E6000514A07F1C80107F58C7006F0B3FD4F4ABF
:103E700007F1C80107F5907006F0ACFD4C4A07F158
:103E8000C80107F5947006F0A5FD4A4A07F1C8017C
:103E900007F5987006F09EFD474A07F1C80107F53F
:103EA0009C7006F097FD454A07F1C80107F5A07020
:103EB00006F090FD424A07F1C80107F5A47006F02C
:103EC00089FD404A07F1C80107F5A87006F082FD98
:103ED0003D4A07F1C80107F5AC7006F07BFD3B4A8F
:103EE00007F1C80107F5B07006F074FD384A07F114
:103EF000C80107F5B47006F06DFD364A07F1C80138
:103F000007F5B87006F066FD0025A946A846D7F863
:103F1000F430002B60D0DB685EE000BF00C05A4583
:103F200000002F440000C842388CFF1F30C601003B
:103F3000A8C50100A4C50100B4C5010038C6010030
:103F400044C601006CC601007CC6010080C60100A9
:103F5000C4F00F40C0D301009CC60100A4C60100FC
:103F6000ACC60100BCC60100C8C60100D4C6010031
:103F7000E0C6010060C50100E8C60100F8C6010006
:103F800004C7010014C7010024C7010038C701009D
:103F900044C7010054C701006CC701007CC7010081
:103FA0008CC70100A0C70100BCC70100D8C7010031
:103FB000E4C70100F4C70100FCC701000CC8010000
:103FC00020C801002CC8010034C8010040C801000D
:103FD0004CC8010054C801009D424ADA294607F145
:103FE000F00006F0ABFC2A46044607F5947107F58D
:103FF000747006F08FFCD7F8D43313B1DB6803FB81
:1040000004F30024994426460AE006F083FC214686
:1040100007F5747006F092FC0028C8BF0136013421
:104020002A4607F5947107F5747006F073FCD7F80B
:10403000D43303B1DB689C422A4607F5947107F537
:104040007470E2DB294607F5A87006F077FC0128BA
:10405000294607F1F00005D006F070FC00FB068849
:10406000013554E706F06AFC00FB06F008EB002877
:10407000F6E71D48C7F84080C7F8949003F044FE67
:10408000BB6A1B684BB9194803F03EFED7F8900194
:1040900003F03AFE164803F037FE3A6C9300FB61DA
:1040A0000A337B6123F00703ADEB030D06ABFB671F
:1040B000002A02F1FF333B6209DDFA6F386C0023FE
:1040C0001946043A0133984242F8041FFAD1D7F84E
:1040D0004431002B01F04E82DB68002B41F3298331
:1040E00000221446154608E064C801006CC60100B1
:1040F0007CC60100CB689C4218DA07F5A0715046D7
:1041000006F008FC0021504606F022FC014607F5A7
:104110007470FFF76FFBD7F8E433D7F8441101341C
:10412000A4B22B4422469DB20029E3D1C7F88450A3
:10413000FA69D7F88400134603FB00F30A3323F02F
:104140000703ADEB030D0DF11809B8B1396C9408F4
:10415000002000290CDD0022134604FB00F501338A
:104160002A449BB20026994249F822601A46F6DC9E
:104170000130D7F8842083B29A42EAD8D7F8804039
:10418000012C08DD824803F0BFFD204603F03CFE11
:10419000804803F0B9FD804B8049814800221A60B5
:1041A000804B1A60804B1A60804B1A60804B1A60FB
:1041B000804B1A60804B1A60804B1A60804B1A60EB
:1041C000804B1A60804B1A60804B1A60804B1A60DB
:1041D000804B1A60804B1A60804B1A60804B1A60CB
:1041E000804B1A60804B1A60804B1A60804B002510
:1041F0000026C3E900567F4BC3E900567E4B0024DE
:104200001C607E4B1C607E4B1C607E4B1C600CF067
:1042100015FB7D4B7D491C607D4B1C607D4B1C60FC
:104220007D4B00221A607D4B1A607D4B1A607D4BDE
:104230001A607D4B1A607D4B1A607D4B1A607D4B76
:104240001A607D4B1A607D4B1A607D4B1A607D4B66
:104250001A607D4B1A607D4B1A607D4B1A607D4B56
:104260001A607D4B1A607D4B1A607D4B1A607D4B46
:104270001A607D4B1A607D4B1A607D4B1A607D4B36
:104280001A607D4B1A607D4B1A607D4B1A607D4B26
:104290001A607D4B1A607D4B1A607D4B1A607D4B16
:1042A0001A607D4B1A607D4B1A607D4B1A607D4B06
:1042B0001A607D4B07F1C8001A6006F09BFB30B115
:1042C0007A4C206805F03CFA206805F015FA784928
:1042D00007F1C80006F08EFB30B1754907F1C80040
:1042E00006F088FB734B1860734907F1C80006F0AD
:1042F00081FB002841F02481704907F1C80006F0D5
:1043000079FB18B1694B186805F01AFA6C4907F186
:10431000C80006F06FFB18B1644B186805F0ECF9A3
:10432000684907F1C80006F065FB18B15F4B1868D3
:1043300005F02AFA644907F1C80006F05BFB40B1BA
:10434000614907F1C80006F055FB584B196805F0A4
:1043500027F85E4907F1C80006F04CFB40B15B4905
:1043600007F1C80006F046FB504B196805F0EEF85F
:10437000D7F84C31002B00F05881DB68002B40F35C
:1043800054810024C7F8B840C7F8B090A0E000BF3F
:1043900068C801003CC30100209EFF1FC0D301007C
:1043A000F49DFF1F889EFF1F889DFF1FB09DFF1F6C
:1043B000C49DFF1FE09CFF1F309EFF1F609EFF1FDC
:1043C000149DFF1FFC9EFF1FE49DFF1F909DFF1F7C
:1043D000A49DFF1FDC9CFF1FE09DFF1F809EFF1F11
:1043E000109EFF1FC09EFF1F189EFF1F9C9DFF1F5A
:1043F000089DFF1FF89CFF1F949EFF1FA89DFF1F95
:10440000109DFF1F6C9EFF1FD09DFF1F74C80100F1
:10441000289EFF1FF49EFF1F8C9DFF1F689EFF1F9D
:10442000B89EFF1FE89CFF1F049EFF1FDC9DFF1F1F
:10443000F09DFF1FD89DFF1F009DFF1FBC9DFF1F0C
:10444000E49CFF1F849DFF1FC09DFF1FAC9DFF1FAD
:10445000B49DFF1F8C9EFF1FBC9EFF1FCC9DFF1FA6
:10446000EC9DFF1FB09EFF1F349EFF1FA89EFF1FE5
:104470009C9EFF1F749EFF1FA09EFF1F149EFF1F88
:10448000A49EFF1F1C9EFF1FC49EFF1F7C9EFF1F3C
:10449000D49DFF1FD89CFF1FC89EFF1FF89EFF1FC3
:1044A000249EFF1F949DFF1F809DFF1F348CFF1FC4
:1044B00088C80100AC9EFF1F9CC80100C8C801004D
:1044C000E0C80100ACC80100C0C80100D8C80100A4
:1044D000224607F5A47107F5747006F01BFA002157
:1044E00007F5747006F02AFA2246C7F8B40007F5FB
:1044F000A47107F5747006F00DFA012107F57470C8
:1045000006F01CFA224607F5A471834607F574707D
:1045100006F000FA022107F5747006F00FFA224641
:10452000C7F8BC0007F5A47107F5747006F0F2F93E
:10453000032107F5747006F001FA224607F5A4710D
:10454000064607F5747006F0E5F9042107F5747066
:1045500006F0F4F90EF022F807F574758046002491
:10456000012303FA04F202F1FF3948460EF016F86F
:104570009E4B45F8040B002119600121D7F8BC308F
:104580000191012059464A460096FDF75BFD974B85
:1045900019684AF8241040460EF0F2F9002840F05D
:1045A0003B8201340C2CDBD10A240B255AF82490D1
:1045B00007F574734946404653F824400DF038FF20
:1045C000494680465AF825000DF032FF07F574730E
:1045D0008146214653F825000DF02AFF0146484642
:1045E0000EF0E4F8014640460EF0E0F821460DF0EA
:1045F00021FF0EF0EDF9D7F8B8207D4CD7F8B45074
:10460000D7F84C3144F8250001327A4892B2C7F805
:10461000B82040F8256014462BB1DB68D7F8B820E5
:104620009A42FFF655AFD7F8B090734907F1C8002A
:1046300006F0E0F9002840F07A87D7F88030002BA8
:1046400040F3258497F838307B62FB69C7F83C90CB
:104650009B087B630023C7F8883003F0FDFA00282D
:1046600040F0C7810024009407F59C7393E8030091
:10467000D7F88020D7F88830FEF710F8D7F89430B4
:10468000A34240F37F8100231A46BA6607F5D87229
:104690007B663C67FC643C63BC67C7F8BC40C7F8FA
:1046A000AC40C7F8A4202546A346D7F8BC30C7F8CD
:1046B0009CD0002B00F0DF810023D7F8A080C7F842
:1046C000A830294607F1E00006F038F92A461FFA1B
:1046D00080F907F59471504606F01CF9D7F8AC2024
:1046E000B2FBF8F308FB13284146504606F026F9C2
:1046F000424B2A46187007F58C71504606F00AF9AD
:104700004146504606F024F9014607F5D0700CF0FA
:104710005BF8D7F8A001FDF7A3F92A4607F59071D9
:104720000646504606F0F6F84146504606F006F9B1
:104730002A46C7F8B00007F1E801504606F0EAF84B
:104740004146504606F0FAF82A4683B207F58071D2
:1047500050461C46C7F8B83006F0DCF841465046D3
:1047600006F0F6F8D7F8A480014640460CF02CF885
:10477000D8F80000FDF774F90EF050F9204BB9F1AC
:10478000000F08BF4FF013091880002C00F055816E
:104790004FEA5909D7F8A030D7F8BC201946914202
:1047A00058DD002A00F0EA8230460EF037F97B6FC0
:1047B00080B2002B40F0DC82104B1C78A6B20DF0CA
:1047C000E9FE3146FCF74CF801462046FBF7BCFEFB
:1047D00007F5FC78C7F8B450C7F8989007F5E87665
:1047E000C7F88CB07D6FC1461BE000BFA89EFF1FBD
:1047F000389EFF1FCC9EFF1FF0C80100A09DFF1F29
:10480000789EFF1FD8F800000DF0C8FE5946FCF74F
:1048100027F801462046FBF797FE4E4508F10408AD
:1048200010D056F8044B002CF7D01FFA84FB20461A
:10483000002DE7D0D8F80010FBF786FE4E4508F1B2
:104840000408EED1D7F8B450D7F89890D7F88CB0C8
:10485000FBF7BAFE03F000FA002840F0F6804FEABA
:104860004903C7F88C30083323F00703ADEB030D81
:1048700006AAADEB030DB64BC7F8B42000221A60B0
:1048800006ABC7F89830B24B1B68002BFBD0D7F8AB
:10489000B820002A00F0CB80B7F8B000CDF8009027
:1048A0000138D7F89830D7F8B410013A05F010FA6B
:1048B00062B6A849402310220A600B60D7F8843002
:1048C000002B40F0A481D7F89030012B00F0348207
:1048D0004FF07C524946D7F8B40003F08BFC0DF042
:1048E00059FED7F8B8300446002B40F04381D7F882
:1048F000A830002B40F06181974B1B7883B1FB6F90
:10490000BE6F1A4652F826000DF044FE21460DF007
:1049100091FD0EF083F8FB6F43F82600731CBB6714
:10492000294607F1F00006F009F82A46044607F583
:104930009471504605F0EEFFD7F8BC20DAF8043049
:104940000132C7F8BC20D7F8AC200132C7F8AC2040
:1049500013B1DB6803FB04F3D7F8BC20934200F0EB
:104960000282D7F8A4000BF0EFFE07F5D0700BF031
:10497000EBFED7F89430D7F89CD00BF1010B5B45D8
:104980003FF793AE754B764CBD6B0120186007F571
:10499000FC7107F5E87353F8042B954205D0A25C2F
:1049A000704E56F8322082F800018B42F3D17A6AB9
:1049B0006C4BD7F8881053F832306B480122114401
:1049C00083F800210C46C7F888100BF011FED7F8C9
:1049D0008030A34240F35982BB68002B7FF73DAE85
:1049E0001946624803F0E6FA03F036F900283FF46E
:1049F00039AE01215D4803F0DDFA01307FF432AEBB
:104A0000BB6C013B3B65D7F88030C7F888307B6CC6
:104A1000FB65BB69FB6625E6022C00F3C585013CFE
:104A200007F5747353F824000DF0D2FFE3E549460F
:104A3000D7F8B40005F0ACF83AE7B7F8B000D7F80B
:104A4000B810013804F03CFFA4E60121474803F008
:104A5000B1FA01307FF403AFBB6CD7F894B0013BDF
:104A60003B657B6C013BFB65D7F88030C7F888302D
:104A70003B6EFB66F3E62A4607F59471504605F057
:104A800049FFDAF80430002B00F0E282DB68C7F857
:104A9000A030984607F5E87907F5087207F5FC702D
:104AA0004B4653F8041B42F8041B8342F9D107F527
:104AB000FC7600242A4607F58471504605F02AFF4B
:104AC0002146504605F03AFF2A4649F8040B07F5FF
:104AD000887107F5E07005F01DFF214607F5E070CD
:104AE00005F036FF014650460BF06EFEDAF8000086
:104AF000FCF7B6FF0DF06CFF013446F8040B50468E
:104B00000BF022FE0A2CD5D1002D00F0948129460D
:104B100007F1F80005F01CFF014650460BF054FE6B
:104B2000DAF80000FCF79CFF0DF078FFFA6C824287
:104B3000034605D00E495A1E8A4240F2E182FB64C8
:104B400050460BF001FE0123C7F8A830B9E500BFBD
:104B5000C89DFF1FC4F00F40A09DFF1FF09CFF1FCA
:104B600040D40100B0D80100089EFF1FC0B301006F
:104B70005755550549464FF07C52D7F8980003F039
:104B800039FB0DF007FD3B6F0BB97C66B866BE6E56
:104B900031460DF04DFC796E0DF054FD31460DF0AF
:104BA00005FE014620460DF043FC01233B67D7F884
:104BB000A8300446002B3FF49FAEC64ED7F8A8009D
:104BC00007F5087307F51271A64653F8042B2AB1AE
:104BD000B25CC14C54F8322082F800018B42F4D10F
:104BE0007446BC4EFBF7F0FC07F5E87307F5FC7163
:104BF0000120A64653F8042B2AB1B25CB64C54F8F7
:104C0000322082F880008B42F4D1744674E601238E
:104C1000009307F5A07393E80300D7F88020D7F836
:104C20008830FDF73BFDD7F84431002B3FF44BAE05
:104C3000DB68002B7FF747AE0022C7F8549014467C
:104C40001646D7F83480BD65D7F83C9047E0DAF8CF
:104C50000400C7F8B030FCF703FFD7F8B03003FB0F
:104C600008B2022D06F1020349F822009BB253D08C
:104C7000DAF80800C7F8B030FCF7F2FED7F8B03029
:104C800003FB08B3F21C032D49F8230093B243D071
:104C9000DAF80C00C7F8B030FCF7E2FED7F8B03015
:104CA00003FB08B3321D042D49F8230093B233D01F
:104CB000DAF81000C7F8B030FCF7D2FED7F8B03001
:104CC00003FB08B3013449F82300D7F84431053613
:104CD000A4B2B6B222463BB3DB689C4224DA07F5A5
:104CE000A07107F5E07005F015FE002107F5E070F2
:104CF00005F02EFE01465046FEF77CFDDAF8000076
:104D0000DAF81450FCF7ACFE06FB08B2731C012D58
:104D100049F822009BB29ADC1E460134D7F8443190
:104D2000A4B22246002BD7D1D7F89030BD6DD7F86A
:104D30005490012B7FF4CCADD7F88C305808002B61
:104D40003FF4C6ADD7F8B42000F10040013802EBC3
:104D50004000931E07F2CE3233F8021F22F8021FE2
:104D60008342F9D1B4E500230135C7F8BC30F8E53A
:104D70005A4B01461878FBF7E7FB29E52A4607F569
:104D80009871504605F0C6FDD7F8BC10504605F0A6
:104D9000DFFD014607F5E0700BF016FD504907F501
:104DA000E0700BF0ABFD00283CD1D7F88830002B29
:104DB00038D13B6B002B00F074814A4802F0A4FF0D
:104DC000D7F8C00102F0A0FF474802F09DFF474816
:104DD00002F09AFF2A4607F59871504605F09AFDB1
:104DE0000121504605F0B4FD02F08EFF3E4802F06E
:104DF0008BFF3F4907F5E0700BF080FD044600286B
:104E000000F02C813B4802F07FFFD7F8F43023B14B
:104E1000DB68013BAB4200F04881374802F074FF89
:104E200001233B634FF4C853013BFDD107F5E0700C
:104E30000BF08AFCB8E4294607F1F80005F088FD7C
:104E4000014650460BF0C0FCDAF80000FCF708FE03
:104E50000DF0E4FD97F82C301F4AF86452F8332027
:104E6000012182F80011254A431E93423FF668AEA5
:104E7000FB6C03EB43021201013A232A7FF660AE7A
:104E80001F4920480BF06AFB5AE6D7F83C9007F11F
:104E9000D80393E8030007F5C07383E8030007F124
:104EA000D00393E8030007F5C47383E80300D7F841
:104EB0008431002900F07283D1F80CB0002B00F08F
:104EC0006783BBF1000FD3F80C805EDD0E4D00242C
:104ED00022E000BF40D40100B0D80100A09DFF1F18
:104EE000C0D301000CC901007CC60100E0D601005E
:104EF00010C9010014C901003CC3010057555505F4
:104F00006D1E0000089EFF1F010002400134504644
:104F10000BF01AFCA34538DD224607F5C471504654
:104F200005F0F8FC0021504605F008FD2246064633
:104F300007F5C47107F5E07005F0ECFC012107F5F9
:104F4000E07005F005FD014650460BF03DFC872E54
:104F5000DCD8DAF80000FCF783FDC84BC7F8BC00CA
:104F60001A6802EB8606D6F870130DF0FFFC18B92C
:104F7000D7F8BC30C6F870332B78DB07FCD501348A
:104F800050460BF0E1FBA345C6DCB8F1000F27DD6E
:104F9000BB4802F0B9FE08F1FF360024214607F5B0
:104FA000C07005F0D5FC014650460BF00DFCDAF858
:104FB00000502846FCF754FD0CF09AFE02460B46C2
:104FC000B048294602F0FEFEA642AF4808BFAF48EF
:104FD00002F09AFE013450460BF0B6FB4445DDD199
:104FE000D7F84431002B00F00681DB68002B40F33A
:104FF0000281FB693E6CD7F8208000229B08C7F82D
:10500000B030C7F8AC20C7F8BC2007F5A07107F591
:10501000E07005F07FFC002107F5E07005F098FCDA
:1050200001465046FEF7E6FBDAF81430C7F8B43014
:10503000002B40F3D1804FF0000BBBF1040F00F2C6
:105040008A80DFE81BF09C0190018A0196018300B1
:10505000D7F8BC30C7F8A03098461BE58C4907F557
:10506000E0700BF04BFC30B38A480BF0C1FA2146DC
:10507000894802F09FFF894802F046FEFB6C884A8F
:10508000013B93423FF6C1AEFB6C03EB43021201BE
:10509000013A232A7FF6B9AE82497E480BF05EFAC8
:1050A000B3E6814802F030FE87E6804802F02CFE2D
:1050B00001233B63B6E67E4907F5E0700BF01EFC6A
:1050C000044650B373480BF093FA01E00130D2D09C
:1050D0000021714802F06EFF0128F7D1754802F0F7
:1050E00013FEBB6CD7F894B0013B3B657B6C013B76
:1050F000FB65D7F88030C7F888303B6EFB66BDE7AC
:1051000003EB43021201013A232A7FF618AD6549E9
:105110006048FB640BF022FA12E5674907F5E0707E
:105120000BF0ECFB00283FF470AE5A480BF060FA2D
:10513000224696235849504602F0EAFE5F4802F0A4
:10514000E3FD504602F0E0FD5D4895E7DAF8101007
:105150005C4802F037FE002E2FDDD7F8BC20D7F8D0
:10516000B010C7F8B8B002FB01F5002305EB080248
:105170001C4693460DE059F822000CF0B9FD0134AD
:1051800002460B46A4B2504802F01CFEA64223463B
:1051900011DD984505EB0302EDD159F82B000CF019
:1051A000A7FD013402460B46A4B2484802F00AFEAD
:1051B000A6422346EDDCD7F8B8B00BF101031FFA85
:1051C00083FBD7F8BC3001339BB2C7F8BC30D7F8AB
:1051D000B4309B45FFF631AFD7F8AC20D7F8443157
:1051E000013292B2C7F8AC202BB1DB68D7F8AC1013
:1051F0009942FFF60AAF7B6923F00703ADEB030D7D
:105200003B6A01330DF1180B08D00023386C1946A6
:105210005A460133834242F8041BFAD12C4907F560
:10522000E0700BF0D1FA2A4950460BF0CDFA002677
:10523000B146B046D7F8F43003B1DB689E4280F245
:10524000A680314607F1F00007F5D87405F076FB2B
:105250002046324607F5947105F05CFB0023C7F841
:10526000BC30314607F1F00005F068FBD7F8BC30E0
:10527000834280F28A8000255BE000BF388CFF1FEC
:1052800048C9010054C901003CC301005CC90100C8
:1052900018C90100089EFF1FC0B3010020C901000A
:1052A000575555056D1E000000C901006CC901006D
:1052B00028C9010030C901003CC90100E0D6010045
:1052C00044C9010060C9010038C3010068C9010078
:1052D000C0D3010005F03CFB014607F5E0700BF080
:1052E000ADFA07F5E0700BF01FFB324607F594713D
:1052F0008044204605F00EFB2946204605F01EFBA3
:105300000028324607F58071204611DD05F002FBCA
:105310002946204605F01CFB014650460BF08EFA4C
:1053200050460BF001FB80444BF8298009F101093C
:105330000135324607F59471204605F0EBFA6368B3
:1053400003B1DB689D42314607F1F800C2DBD7F8B4
:10535000BC300133C7F8BC3083E7DAF80810C8481E
:1053600002F030FDF7E6DAF80410C54802F02AFD35
:10537000F1E6DAF80C10C24802F024FDEBE6DAF8A8
:105380000010BF4802F01EFDE5E6013652E7BD4BB6
:105390001B68002B40F09580BB4B1B68002B18DD71
:1053A00009F1FF39B9F1000F0CDDABF10405002460
:1053B00055F8040F02F038FD0134B44802F0A4FCA3
:1053C000A145F5D15BF8290002F02EFDB04802F0AE
:1053D0009BFCB04802F098FCD7F89030002B55D0D9
:1053E00007F2CE3500240FE035F8020F02F00CFD75
:1053F000002107F1E00005F0A1FA01388442A3483A
:1054000001D002F081FC0134002107F1E00005F039
:1054100095FA8442E8DBA04802F076FCFB6EBA699C
:10542000934228DB7B6CFA6D013B934223DCFA6EDE
:10543000B9698A4200F0408107F5E87307F5FC710D
:10544000002243F8042B8B42FBD1FB6D5046013305
:105450001C46FB650BF078F907F5E0700BF074F96A
:105460007B6CD7F80CD01A46A24240F36981BB6B23
:10547000FB62FEF75DBC854802F046FC3B68002BF2
:10548000DADD1946854802F095FDD5E73B6C002B27
:10549000C1DDFB6FD7F890501C1FD7F8803054F84F
:1054A000040FB0FBF3F002F0BFFC3B6A7748AB425D
:1054B00005F1010501D002F027FC3B6CAB42ECD1B9
:1054C000A9E7C7F898D040F3228175481A464FF0F3
:1054D000000C80FB0241D217D2EBA1020CF1010CAF
:1054E000F7D14FEA8C021146C7F894200A3222F015
:1054F0000702ADEB020D06AC0439694D214485FB72
:105500000320DA17C2EBA00202EB8200A3EB4003F8
:1055100041F804391346002AF1D1396C91FBFCF5AE
:105520000CFB1512002A43D0D7F898D034E75D4918
:1055300007F1C80005F05EFA03F0DAFEFFF77DB868
:10554000594907F1C80005F055FA00287EF7D4AE96
:10555000554907F1C80005F04DFA544B98423EF703
:10556000CBAE514907F1C80005F044FA504B186022
:10557000FEF7C2BEC7F8843007F1C409FEF7FEBDCE
:105580004C4907F1C80005F035FAB863FEF74CBC8A
:10559000BBF1000F7FF724AD984697E4002B3FF452
:1055A0001FADD3F80C80F0E4651E023CFEF7FEBF91
:1055B0007A69C7F8A4D022F00702ADEB020D06A865
:1055C000ADEB020D211F06AAC7F8B420C7F89C1046
:1055D000C7F8B8000A461E4652F8041F01338E422F
:1055E000B8BF0E469C45F7D1B30003F10A0E2EF06A
:1055F0000703ADEB030D06AA002E00F0DA80131F9F
:105600001946C7F8BC30002318460133B34241F8AD
:10561000040FFAD101218846D7F89C00002301E04D
:105620009C450BD050F8044FA14203F10103F7D180
:1056300014689C4504F101041460F3D1B04501F1F4
:10564000010102F10402E6DB2EF00703ADEB030DCE
:105650000DF118080023012EC8F8003040F3AF8088
:10566000D7F8BC404146012254F8040F01320344EC
:1056700003FB05F0B24241F8040FF5D19FE000BFF3
:1056800060C90100849EFF1FE89DFF1F3CC301000D
:105690006CC9010070C9010034D00100C0B3010021
:1056A00067666666F0C801009CC801003F420F00B3
:1056B000348CFF1F54C70100FA6D93427FF4BCAED7
:1056C000BB6A1B68002B5CD16E4802F01DFBB3E681
:1056D0006D4802F019FB404602F016FBD7F810D0D7
:1056E0006A4802F011FB02F0F9FB02F081FB684B03
:1056F000052203F109000121664C54F8322098423A
:1057000082F800113EF40AAA13F8012FF4E73B6C6B
:10571000002B7FF409AF7B69C7F8A4D023F00703FF
:10572000ADEB030DADEB030D3B6C0693D7F8A4D0A6
:10573000FAE6002307F1C409C7F88430FEF71EBD5E
:10574000FB6E0133FB663A6ED7F810D09A423EF7F3
:105750009DAA7C68BB6C3A6D013B9A4207DB3B6DAE
:10576000BA6C013393423B65FEF68AAAB8E74A4811
:1057700002F0CAFA002CF2D02146484802F01AFC86
:10578000EDE7474802F01EFB56E607F5387303EBDA
:10579000081630460BF0A2F829787D2901D0013592
:1057A000F7E730460BF09AF808F101080135FEF7EB
:1057B000ADB9ADEB030D0DF11808C8F800603B6CF6
:1057C000002BB3DDFB6FC7F8AC300023C7F8B0B0D7
:1057D000C7F8A830BCF1000F25D0D7F8AC00D7F837
:1057E0009C50D7F8B040C7F8BC00002155F8043FE2
:1057F000D7F8BC20D7F8B80052F804EBC7F8BC20A3
:1058000008EB8303013153F8042C54F8046B40F87F
:1058100022E002F1010E43F804ECD7F8B430614500
:1058200043F82260E2D1D7F8AC20D7F89410D7F82B
:10583000A8301046D7F8B0200844C7F8AC0010468E
:105840003A6C634408449A42C7F8A830C7F8B000DD
:10585000C0DCD7F8B8301E1FD7F8B430181FFB6F64
:10586000ABF10402191F002350F8044F42F8044F13
:105870003C6C56F8045F41F8045F01339C42F3D15D
:1058800054E700BF24C9010084C9010074D001009D
:1058900041D40100B0D801003CC30100C0B30100F5
:1058A00080C9010070B5012886B01A4C23D00020B1
:1058B00002F0C6FD2268184E136815681168146856
:1058C0000390C5F30745E0B2C1F30721134A0290E4
:1058D0001B0E0191009512490496124802F072FACB
:1058E000114802F011FA114802F00EFA06B0BDE8B4
:1058F000704002F0F3BA0E48002102F05BFB23680F
:105900001A6890420B4A18BF18601378DB07FCD561
:10591000CDE700BF388CFF1F30C60100A4C50100D1
:10592000A8C50100A4C9010020CA010074D001006B
:10593000C0B30100010002402DE9F04FE5B0312372
:105940004FF4FA7298493EA802F0E2FA3EA80EF02F
:1059500017FE0DF1F705064600240BE015F8010FC0
:105960000DF096FA034620B93EA82B700EF008FE03
:1059700006460134B442F1D3022E10D99DF8F84006
:1059800020460DF071FA002800F09383A4F1300353
:10599000092B40F201832CB9844802F013FA65B058
:1059A000BDE8F08F0DF1F900FCF794FA804B00FB95
:1059B0000440984200F0F78240F2EE867D4B984218
:1059C00000F0E58624D97C4B984200F0A78500F2D0
:1059D000C78303F1734303F5B823DA33984200F029
:1059E000EE8340F29B83754B984200F0788340F23F
:1059F0006683734B984200F02987724B9842CBD153
:105A0000714A7249724802F0DDF965B0BDE8F08F65
:105A1000A3F10753A3F50313A3F2FE23984200F06A
:105A200072812FD803F15D4303F5280303F58063EA
:105A3000984201F0038541F26A83664B984201F077
:105A40008D8441F24681644B984240F04F8244F687
:105A5000206009F011FA614B4BAA114618681792A1
:105A60009A889B794B908A808B7109F09FFC002863
:105A700040F036811798072109F016FC322008F013
:105A800095FDF2E7564B984200F0378140F2828153
:105A9000544B984200F0BA8041D9534B984232D1CE
:105AA00041F2883008F082FD504802F08BF95048EE
:105AB00002F088F94BAB179334AB012418930DF126
:105AC000BC080FE04B4802F07DF94B9B349A2F99AC
:105AD000494802F077F9642008F068FD642C00F072
